{
  "contractName": "Marketplace",
  "abi": [
    {
      "inputs": [
        {
          "internalType": "uint256",
          "name": "_feePercent",
          "type": "uint256"
        }
      ],
      "stateMutability": "nonpayable",
      "type": "constructor"
    },
    {
      "anonymous": false,
      "inputs": [
        {
          "indexed": false,
          "internalType": "uint256",
          "name": "itemId",
          "type": "uint256"
        },
        {
          "indexed": true,
          "internalType": "address",
          "name": "nft",
          "type": "address"
        },
        {
          "indexed": false,
          "internalType": "uint256",
          "name": "tokenId",
          "type": "uint256"
        },
        {
          "indexed": false,
          "internalType": "uint256",
          "name": "price",
          "type": "uint256"
        },
        {
          "indexed": true,
          "internalType": "address",
          "name": "seller",
          "type": "address"
        },
        {
          "indexed": true,
          "internalType": "address",
          "name": "buyer",
          "type": "address"
        }
      ],
      "name": "Bought",
      "type": "event"
    },
    {
      "anonymous": false,
      "inputs": [
        {
          "indexed": false,
          "internalType": "uint256",
          "name": "itemId",
          "type": "uint256"
        },
        {
          "indexed": true,
          "internalType": "address",
          "name": "nft",
          "type": "address"
        },
        {
          "indexed": false,
          "internalType": "uint256",
          "name": "tokenId",
          "type": "uint256"
        },
        {
          "indexed": false,
          "internalType": "uint256",
          "name": "price",
          "type": "uint256"
        },
        {
          "indexed": true,
          "internalType": "address",
          "name": "seller",
          "type": "address"
        }
      ],
      "name": "Offered",
      "type": "event"
    },
    {
      "inputs": [],
      "name": "feeAccount",
      "outputs": [
        {
          "internalType": "address payable",
          "name": "",
          "type": "address"
        }
      ],
      "stateMutability": "view",
      "type": "function",
      "constant": true
    },
    {
      "inputs": [],
      "name": "feePercent",
      "outputs": [
        {
          "internalType": "uint256",
          "name": "",
          "type": "uint256"
        }
      ],
      "stateMutability": "view",
      "type": "function",
      "constant": true
    },
    {
      "inputs": [],
      "name": "itemCount",
      "outputs": [
        {
          "internalType": "uint256",
          "name": "",
          "type": "uint256"
        }
      ],
      "stateMutability": "view",
      "type": "function",
      "constant": true
    },
    {
      "inputs": [
        {
          "internalType": "uint256",
          "name": "",
          "type": "uint256"
        }
      ],
      "name": "items",
      "outputs": [
        {
          "internalType": "uint256",
          "name": "itemId",
          "type": "uint256"
        },
        {
          "internalType": "contract IERC721",
          "name": "nft",
          "type": "address"
        },
        {
          "internalType": "uint256",
          "name": "tokenId",
          "type": "uint256"
        },
        {
          "internalType": "uint256",
          "name": "price",
          "type": "uint256"
        },
        {
          "internalType": "address payable",
          "name": "seller",
          "type": "address"
        },
        {
          "internalType": "bool",
          "name": "sold",
          "type": "bool"
        }
      ],
      "stateMutability": "view",
      "type": "function",
      "constant": true
    },
    {
      "inputs": [
        {
          "internalType": "contract NFT",
          "name": "_nft",
          "type": "address"
        },
        {
          "internalType": "uint256",
          "name": "_tokenId",
          "type": "uint256"
        },
        {
          "internalType": "uint256",
          "name": "_price",
          "type": "uint256"
        }
      ],
      "name": "makeItem",
      "outputs": [],
      "stateMutability": "nonpayable",
      "type": "function"
    },
    {
      "inputs": [
        {
          "internalType": "uint256",
          "name": "_itemId",
          "type": "uint256"
        }
      ],
      "name": "purchaseItem",
      "outputs": [],
      "stateMutability": "payable",
      "type": "function",
      "payable": true
    },
    {
      "inputs": [
        {
          "internalType": "uint256",
          "name": "_itemId",
          "type": "uint256"
        }
      ],
      "name": "getTotalPrice",
      "outputs": [
        {
          "internalType": "uint256",
          "name": "",
          "type": "uint256"
        }
      ],
      "stateMutability": "view",
      "type": "function",
      "constant": true
    },
    {
      "inputs": [
        {
          "internalType": "uint256[]",
          "name": "ids",
          "type": "uint256[]"
        }
      ],
      "name": "likeViewBatch",
      "outputs": [
        {
          "components": [
            {
              "internalType": "uint256",
              "name": "itemId",
              "type": "uint256"
            },
            {
              "internalType": "contract IERC721",
              "name": "nft",
              "type": "address"
            },
            {
              "internalType": "uint256",
              "name": "tokenId",
              "type": "uint256"
            },
            {
              "internalType": "uint256",
              "name": "price",
              "type": "uint256"
            },
            {
              "internalType": "address payable",
              "name": "seller",
              "type": "address"
            },
            {
              "internalType": "bool",
              "name": "sold",
              "type": "bool"
            }
          ],
          "internalType": "struct Marketplace.Item[]",
          "name": "",
          "type": "tuple[]"
        }
      ],
      "stateMutability": "view",
      "type": "function",
      "constant": true
    },
    {
      "inputs": [
        {
          "internalType": "contract NFT",
          "name": "_nft",
          "type": "address"
        },
        {
          "internalType": "uint256",
          "name": "_tokenId",
          "type": "uint256"
        }
      ],
      "name": "nftInMarket",
      "outputs": [
        {
          "internalType": "bool",
          "name": "",
          "type": "bool"
        }
      ],
      "stateMutability": "view",
      "type": "function",
      "constant": true
    },
    {
      "inputs": [
        {
          "internalType": "contract NFT",
          "name": "_nft",
          "type": "address"
        },
        {
          "internalType": "uint256",
          "name": "_tokenId",
          "type": "uint256"
        }
      ],
      "name": "test",
      "outputs": [
        {
          "internalType": "address",
          "name": "",
          "type": "address"
        }
      ],
      "stateMutability": "view",
      "type": "function",
      "constant": true
    },
    {
      "inputs": [
        {
          "internalType": "uint256",
          "name": "_itemId",
          "type": "uint256"
        }
      ],
      "name": "cancelItem",
      "outputs": [],
      "stateMutability": "nonpayable",
      "type": "function"
    },
    {
      "inputs": [
        {
          "internalType": "uint256",
          "name": "_tokenId",
          "type": "uint256"
        }
      ],
      "name": "lastValidTransaction",
      "outputs": [
        {
          "internalType": "uint256",
          "name": "",
          "type": "uint256"
        }
      ],
      "stateMutability": "view",
      "type": "function",
      "constant": true
    }
  ],
  "bytecode": "0x60c06040523480156200001157600080fd5b50604051620024f0380380620024f08339818101604052810190620000379190620000c2565b60016000819055503373ffffffffffffffffffffffffffffffffffffffff1660808173ffffffffffffffffffffffffffffffffffffffff16815250508060a0818152505050620000f4565b600080fd5b6000819050919050565b6200009c8162000087565b8114620000a857600080fd5b50565b600081519050620000bc8162000091565b92915050565b600060208284031215620000db57620000da62000082565b5b6000620000eb84828501620000ab565b91505092915050565b60805160a0516123c86200012860003960008181610aeb0152610dd10152600081816108ca0152610ff601526123c86000f3fe6080604052600436106100a75760003560e01c8063a89a4db811610064578063a89a4db8146101d0578063ba14d6061461020d578063bfb231d21461024a578063ca7dd3751461028c578063d38ea5bf146102c9578063fa00afc7146102e5576100a7565b806340f49425146100ac57806351563f8e146100e957806365e17c9d146101125780636bfb0d011461013d5780636cb672e4146101685780637fd6f15c146101a5575b600080fd5b3480156100b857600080fd5b506100d360048036038101906100ce919061163a565b61030e565b6040516100e09190611676565b60405180910390f35b3480156100f557600080fd5b50610110600480360381019061010b919061163a565b61059f565b005b34801561011e57600080fd5b506101276108c8565b60405161013491906116d2565b60405180910390f35b34801561014957600080fd5b506101526108ec565b60405161015f9190611676565b60405180910390f35b34801561017457600080fd5b5061018f600480360381019061018a9190611846565b6108f2565b60405161019c9190611a51565b60405180910390f35b3480156101b157600080fd5b506101ba610ae9565b6040516101c79190611676565b60405180910390f35b3480156101dc57600080fd5b506101f760048036038101906101f29190611ac3565b610b0d565b6040516102049190611b12565b60405180910390f35b34801561021957600080fd5b50610234600480360381019061022f9190611ac3565b610cbe565b6040516102419190611b3c565b60405180910390f35b34801561025657600080fd5b50610271600480360381019061026c919061163a565b610d42565b60405161028396959493929190611b66565b60405180910390f35b34801561029857600080fd5b506102b360048036038101906102ae919061163a565b610dcb565b6040516102c09190611676565b60405180910390f35b6102e360048036038101906102de919061163a565b610e2e565b005b3480156102f157600080fd5b5061030c60048036038101906103079190611bc7565b6111fb565b005b60008060015490506000600260008381526020019081526020016000206040518060c0016040529081600082015481526020016001820160009054906101000a900473ffffffffffffffffffffffffffffffffffffffff1673ffffffffffffffffffffffffffffffffffffffff1673ffffffffffffffffffffffffffffffffffffffff16815260200160028201548152602001600382015481526020016004820160009054906101000a900473ffffffffffffffffffffffffffffffffffffffff1673ffffffffffffffffffffffffffffffffffffffff1673ffffffffffffffffffffffffffffffffffffffff1681526020016004820160149054906101000a900460ff16151515158152505090508381604001510361044757600015158160a001511515036104465780600001519250505061059a565b5b5b600082111561059357818061045c90611c49565b925050600260008381526020019081526020016000206040518060c0016040529081600082015481526020016001820160009054906101000a900473ffffffffffffffffffffffffffffffffffffffff1673ffffffffffffffffffffffffffffffffffffffff1673ffffffffffffffffffffffffffffffffffffffff16815260200160028201548152602001600382015481526020016004820160009054906101000a900473ffffffffffffffffffffffffffffffffffffffff1673ffffffffffffffffffffffffffffffffffffffff1673ffffffffffffffffffffffffffffffffffffffff1681526020016004820160149054906101000a900460ff16151515158152505090508381604001510361058e57600015158160a0015115150361058d5780600001519250505061059a565b5b610448565b6000925050505b919050565b6002600054036105e4576040517f08c379a00000000000000000000000000000000000000000000000000000000081526004016105db90611ccf565b60405180910390fd5b600260008190555060006002600083815260200190815260200160002090508060040160009054906101000a900473ffffffffffffffffffffffffffffffffffffffff1673ffffffffffffffffffffffffffffffffffffffff163373ffffffffffffffffffffffffffffffffffffffff1614610695576040517f08c379a000000000000000000000000000000000000000000000000000000000815260040161068c90611d3b565b60405180910390fd5b6000821180156106a757506001548211155b6106e6576040517f08c379a00000000000000000000000000000000000000000000000000000000081526004016106dd90611da7565b60405180910390fd5b8060040160149054906101000a900460ff1615610738576040517f08c379a000000000000000000000000000000000000000000000000000000000815260040161072f90611e13565b60405180910390fd5b60018160040160146101000a81548160ff0219169083151502179055508060010160009054906101000a900473ffffffffffffffffffffffffffffffffffffffff1673ffffffffffffffffffffffffffffffffffffffff166323b872dd303384600201546040518463ffffffff1660e01b81526004016107ba93929190611e33565b600060405180830381600087803b1580156107d457600080fd5b505af11580156107e8573d6000803e3d6000fd5b505050503373ffffffffffffffffffffffffffffffffffffffff168160040160009054906101000a900473ffffffffffffffffffffffffffffffffffffffff1673ffffffffffffffffffffffffffffffffffffffff168260010160009054906101000a900473ffffffffffffffffffffffffffffffffffffffff1673ffffffffffffffffffffffffffffffffffffffff167f8b4c9c8a607d67b321582dd8461041b1dc2ceeca70c8b7f37f8e02095cf2e76d85856002015486600301546040516108b493929190611e6a565b60405180910390a450600160008190555050565b7f000000000000000000000000000000000000000000000000000000000000000081565b60015481565b60606000825190506000808267ffffffffffffffff81111561091757610916611703565b5b60405190808252806020026020018201604052801561095057816020015b61093d61158c565b8152602001906001900390816109355790505b50905060005b83811015610add5760006002600088848151811061097757610976611ea1565b5b602002602001015181526020019081526020016000206000015490506000600260008381526020019081526020016000209050806040518060c0016040529081600082015481526020016001820160009054906101000a900473ffffffffffffffffffffffffffffffffffffffff1673ffffffffffffffffffffffffffffffffffffffff1673ffffffffffffffffffffffffffffffffffffffff16815260200160028201548152602001600382015481526020016004820160009054906101000a900473ffffffffffffffffffffffffffffffffffffffff1673ffffffffffffffffffffffffffffffffffffffff1673ffffffffffffffffffffffffffffffffffffffff1681526020016004820160149054906101000a900460ff161515151581525050848681518110610aae57610aad611ea1565b5b6020026020010181905250600185610ac69190611ed0565b945050508080610ad590611f26565b915050610956565b50809350505050919050565b7f000000000000000000000000000000000000000000000000000000000000000081565b6000816000108015610b8d57508273ffffffffffffffffffffffffffffffffffffffff16639f181b5e6040518163ffffffff1660e01b8152600401602060405180830381865afa158015610b65573d6000803e3d6000fd5b505050506040513d601f19601f82011682018060405250810190610b899190611f83565b8211155b15610bcd576040517f08c379a0000000000000000000000000000000000000000000000000000000008152600401610bc490611ffc565b60405180910390fd5b3073ffffffffffffffffffffffffffffffffffffffff168373ffffffffffffffffffffffffffffffffffffffff16636352211e846040518263ffffffff1660e01b8152600401610c1d9190611676565b602060405180830381865afa158015610c3a573d6000803e3d6000fd5b505050506040513d601f19601f82011682018060405250810190610c5e9190612048565b73ffffffffffffffffffffffffffffffffffffffff1614610cb4576040517f08c379a0000000000000000000000000000000000000000000000000000000008152600401610cab906120c1565b60405180910390fd5b6001905092915050565b60008273ffffffffffffffffffffffffffffffffffffffff16636352211e836040518263ffffffff1660e01b8152600401610cf99190611676565b602060405180830381865afa158015610d16573d6000803e3d6000fd5b505050506040513d601f19601f82011682018060405250810190610d3a9190612048565b905092915050565b60026020528060005260406000206000915090508060000154908060010160009054906101000a900473ffffffffffffffffffffffffffffffffffffffff16908060020154908060030154908060040160009054906101000a900473ffffffffffffffffffffffffffffffffffffffff16908060040160149054906101000a900460ff16905086565b600060647f00000000000000000000000000000000000000000000000000000000000000006064610dfc9190611ed0565b6002600085815260200190815260200160002060030154610e1d91906120e1565b610e27919061216a565b9050919050565b600260005403610e73576040517f08c379a0000000000000000000000000000000000000000000000000000000008152600401610e6a90611ccf565b60405180910390fd5b60026000819055506000610e8682610dcb565b90506000600260008481526020019081526020016000209050600083118015610eb157506001548311155b610ef0576040517f08c379a0000000000000000000000000000000000000000000000000000000008152600401610ee790611da7565b60405180910390fd5b81341015610f33576040517f08c379a0000000000000000000000000000000000000000000000000000000008152600401610f2a9061220d565b60405180910390fd5b8060040160149054906101000a900460ff1615610f85576040517f08c379a0000000000000000000000000000000000000000000000000000000008152600401610f7c90611e13565b60405180910390fd5b8060040160009054906101000a900473ffffffffffffffffffffffffffffffffffffffff1673ffffffffffffffffffffffffffffffffffffffff166108fc82600301549081150290604051600060405180830381858888f19350505050158015610ff3573d6000803e3d6000fd5b507f000000000000000000000000000000000000000000000000000000000000000073ffffffffffffffffffffffffffffffffffffffff166108fc82600301548461103e919061222d565b9081150290604051600060405180830381858888f19350505050158015611069573d6000803e3d6000fd5b5060018160040160146101000a81548160ff0219169083151502179055508060010160009054906101000a900473ffffffffffffffffffffffffffffffffffffffff1673ffffffffffffffffffffffffffffffffffffffff166323b872dd303384600201546040518463ffffffff1660e01b81526004016110ec93929190611e33565b600060405180830381600087803b15801561110657600080fd5b505af115801561111a573d6000803e3d6000fd5b505050503373ffffffffffffffffffffffffffffffffffffffff168160040160009054906101000a900473ffffffffffffffffffffffffffffffffffffffff1673ffffffffffffffffffffffffffffffffffffffff168260010160009054906101000a900473ffffffffffffffffffffffffffffffffffffffff1673ffffffffffffffffffffffffffffffffffffffff167f8b4c9c8a607d67b321582dd8461041b1dc2ceeca70c8b7f37f8e02095cf2e76d86856002015486600301546040516111e693929190611e6a565b60405180910390a45050600160008190555050565b600260005403611240576040517f08c379a000000000000000000000000000000000000000000000000000000000815260040161123790611ccf565b60405180910390fd5b6002600081905550600115158373ffffffffffffffffffffffffffffffffffffffff1663c1849cde846040518263ffffffff1660e01b81526004016112859190611676565b602060405180830381865afa1580156112a2573d6000803e3d6000fd5b505050506040513d601f19601f820116820180604052508101906112c6919061228d565b151503611308576040517f08c379a00000000000000000000000000000000000000000000000000000000081526004016112ff90612306565b60405180910390fd5b6000811161134b576040517f08c379a000000000000000000000000000000000000000000000000000000000815260040161134290612372565b60405180910390fd5b6001600081548092919061135e90611f26565b91905055508273ffffffffffffffffffffffffffffffffffffffff166323b872dd3330856040518463ffffffff1660e01b81526004016113a093929190611e33565b600060405180830381600087803b1580156113ba57600080fd5b505af11580156113ce573d6000803e3d6000fd5b505050506040518060c0016040528060015481526020018473ffffffffffffffffffffffffffffffffffffffff1681526020018381526020018281526020013373ffffffffffffffffffffffffffffffffffffffff168152602001600015158152506002600060015481526020019081526020016000206000820151816000015560208201518160010160006101000a81548173ffffffffffffffffffffffffffffffffffffffff021916908373ffffffffffffffffffffffffffffffffffffffff160217905550604082015181600201556060820151816003015560808201518160040160006101000a81548173ffffffffffffffffffffffffffffffffffffffff021916908373ffffffffffffffffffffffffffffffffffffffff16021790555060a08201518160040160146101000a81548160ff0219169083151502179055509050503373ffffffffffffffffffffffffffffffffffffffff168373ffffffffffffffffffffffffffffffffffffffff167f655a0cf9c8db81512be9a76dc1c5ae5380b8816ce6ad659cd61b715e2999d59a600154858560405161157793929190611e6a565b60405180910390a36001600081905550505050565b6040518060c0016040528060008152602001600073ffffffffffffffffffffffffffffffffffffffff1681526020016000815260200160008152602001600073ffffffffffffffffffffffffffffffffffffffff1681526020016000151581525090565b6000604051905090565b600080fd5b600080fd5b6000819050919050565b61161781611604565b811461162257600080fd5b50565b6000813590506116348161160e565b92915050565b6000602082840312156116505761164f6115fa565b5b600061165e84828501611625565b91505092915050565b61167081611604565b82525050565b600060208201905061168b6000830184611667565b92915050565b600073ffffffffffffffffffffffffffffffffffffffff82169050919050565b60006116bc82611691565b9050919050565b6116cc816116b1565b82525050565b60006020820190506116e760008301846116c3565b92915050565b600080fd5b6000601f19601f8301169050919050565b7f4e487b7100000000000000000000000000000000000000000000000000000000600052604160045260246000fd5b61173b826116f2565b810181811067ffffffffffffffff8211171561175a57611759611703565b5b80604052505050565b600061176d6115f0565b90506117798282611732565b919050565b600067ffffffffffffffff82111561179957611798611703565b5b602082029050602081019050919050565b600080fd5b60006117c26117bd8461177e565b611763565b905080838252602082019050602084028301858111156117e5576117e46117aa565b5b835b8181101561180e57806117fa8882611625565b8452602084019350506020810190506117e7565b5050509392505050565b600082601f83011261182d5761182c6116ed565b5b813561183d8482602086016117af565b91505092915050565b60006020828403121561185c5761185b6115fa565b5b600082013567ffffffffffffffff81111561187a576118796115ff565b5b61188684828501611818565b91505092915050565b600081519050919050565b600082825260208201905092915050565b6000819050602082019050919050565b6118c481611604565b82525050565b6000819050919050565b60006118ef6118ea6118e584611691565b6118ca565b611691565b9050919050565b6000611901826118d4565b9050919050565b6000611913826118f6565b9050919050565b61192381611908565b82525050565b611932816116b1565b82525050565b60008115159050919050565b61194d81611938565b82525050565b60c08201600082015161196960008501826118bb565b50602082015161197c602085018261191a565b50604082015161198f60408501826118bb565b5060608201516119a260608501826118bb565b5060808201516119b56080850182611929565b5060a08201516119c860a0850182611944565b50505050565b60006119da8383611953565b60c08301905092915050565b6000602082019050919050565b60006119fe8261188f565b611a08818561189a565b9350611a13836118ab565b8060005b83811015611a44578151611a2b88826119ce565b9750611a36836119e6565b925050600181019050611a17565b5085935050505092915050565b60006020820190508181036000830152611a6b81846119f3565b905092915050565b6000611a7e82611691565b9050919050565b6000611a9082611a73565b9050919050565b611aa081611a85565b8114611aab57600080fd5b50565b600081359050611abd81611a97565b92915050565b60008060408385031215611ada57611ad96115fa565b5b6000611ae885828601611aae565b9250506020611af985828601611625565b9150509250929050565b611b0c81611938565b82525050565b6000602082019050611b276000830184611b03565b92915050565b611b3681611a73565b82525050565b6000602082019050611b516000830184611b2d565b92915050565b611b6081611908565b82525050565b600060c082019050611b7b6000830189611667565b611b886020830188611b57565b611b956040830187611667565b611ba26060830186611667565b611baf60808301856116c3565b611bbc60a0830184611b03565b979650505050505050565b600080600060608486031215611be057611bdf6115fa565b5b6000611bee86828701611aae565b9350506020611bff86828701611625565b9250506040611c1086828701611625565b9150509250925092565b7f4e487b7100000000000000000000000000000000000000000000000000000000600052601160045260246000fd5b6000611c5482611604565b915060008203611c6757611c66611c1a565b5b600182039050919050565b600082825260208201905092915050565b7f5265656e7472616e637947756172643a207265656e7472616e742063616c6c00600082015250565b6000611cb9601f83611c72565b9150611cc482611c83565b602082019050919050565b60006020820190508181036000830152611ce881611cac565b9050919050565b7f54686973204974656d206973206e6f7420796f75727300000000000000000000600082015250565b6000611d25601683611c72565b9150611d3082611cef565b602082019050919050565b60006020820190508181036000830152611d5481611d18565b9050919050565b7f6974656d20646f65736e27742065786973740000000000000000000000000000600082015250565b6000611d91601283611c72565b9150611d9c82611d5b565b602082019050919050565b60006020820190508181036000830152611dc081611d84565b9050919050565b7f6974656d20616c726561647920736f6c64000000000000000000000000000000600082015250565b6000611dfd601183611c72565b9150611e0882611dc7565b602082019050919050565b60006020820190508181036000830152611e2c81611df0565b9050919050565b6000606082019050611e486000830186611b2d565b611e556020830185611b2d565b611e626040830184611667565b949350505050565b6000606082019050611e7f6000830186611667565b611e8c6020830185611667565b611e996040830184611667565b949350505050565b7f4e487b7100000000000000000000000000000000000000000000000000000000600052603260045260246000fd5b6000611edb82611604565b9150611ee683611604565b9250827fffffffffffffffffffffffffffffffffffffffffffffffffffffffffffffffff03821115611f1b57611f1a611c1a565b5b828201905092915050565b6000611f3182611604565b91507fffffffffffffffffffffffffffffffffffffffffffffffffffffffffffffffff8203611f6357611f62611c1a565b5b600182019050919050565b600081519050611f7d8161160e565b92915050565b600060208284031215611f9957611f986115fa565b5b6000611fa784828501611f6e565b91505092915050565b7f6e6674206973206e6f7420657869737400000000000000000000000000000000600082015250565b6000611fe6601083611c72565b9150611ff182611fb0565b602082019050919050565b6000602082019050818103600083015261201581611fd9565b9050919050565b61202581611a73565b811461203057600080fd5b50565b6000815190506120428161201c565b92915050565b60006020828403121561205e5761205d6115fa565b5b600061206c84828501612033565b91505092915050565b7f6e6674206973206e6f7420696e20746865206d61726b6574706c616365000000600082015250565b60006120ab601d83611c72565b91506120b682612075565b602082019050919050565b600060208201905081810360008301526120da8161209e565b9050919050565b60006120ec82611604565b91506120f783611604565b9250817fffffffffffffffffffffffffffffffffffffffffffffffffffffffffffffffff04831182151516156121305761212f611c1a565b5b828202905092915050565b7f4e487b7100000000000000000000000000000000000000000000000000000000600052601260045260246000fd5b600061217582611604565b915061218083611604565b9250826121905761218f61213b565b5b828204905092915050565b7f6e6f7420656e6f75676820657468657220746f20636f766572206974656d207060008201527f7269636520616e64206d61726b65742066656500000000000000000000000000602082015250565b60006121f7603383611c72565b91506122028261219b565b604082019050919050565b60006020820190508181036000830152612226816121ea565b9050919050565b600061223882611604565b915061224383611604565b92508282101561225657612255611c1a565b5b828203905092915050565b61226a81611938565b811461227557600080fd5b50565b60008151905061228781612261565b92915050565b6000602082840312156122a3576122a26115fa565b5b60006122b184828501612278565b91505092915050565b7f5468697320746f6b656e20697320616c7265616479207265616c697a65640000600082015250565b60006122f0601e83611c72565b91506122fb826122ba565b602082019050919050565b6000602082019050818103600083015261231f816122e3565b9050919050565b7f5072696365206d7573742062652067726561746572207468616e207a65726f00600082015250565b600061235c601f83611c72565b915061236782612326565b602082019050919050565b6000602082019050818103600083015261238b8161234f565b905091905056fea2646970667358221220695045606a20287205dd107679cc2fe252cd5d16ef0919789b993b2f417be58064736f6c634300080d0033",
  "immutableReferences": {
    "1759": [
      {
        "length": 32,
        "start": 2250
      },
      {
        "length": 32,
        "start": 4086
      }
    ],
    "1761": [
      {
        "length": 32,
        "start": 2795
      },
      {
        "length": 32,
        "start": 3537
      }
    ]
  },
  "source": "// SPDX-License-Identifier: MIT\r\npragma solidity ^0.8.4;\r\n\r\nimport \"@openzeppelin/contracts/token/ERC721/IERC721.sol\";\r\nimport \"./NFT.sol\";\r\n\r\n//   \r\nimport \"@openzeppelin/contracts/security/ReentrancyGuard.sol\";\r\n\r\ncontract Marketplace is ReentrancyGuard {\r\n\r\n  //  immutable :     ( =     .)\r\n  //                     ( )  . \r\n\r\n\r\n  //  nft   \r\n  address payable public immutable feeAccount;\r\n  \r\n  // \r\n  uint public immutable feePercent;\r\n\r\n  uint public itemCount;\r\n\r\n  //    \r\n  //   mapping       \r\n  struct Item {\r\n    uint itemId;\r\n    // nft \r\n    IERC721 nft;\r\n    uint tokenId;\r\n    uint price;\r\n    address payable seller;\r\n    bool sold;\r\n  }\r\n\r\n  event Offered (\r\n    uint itemId,\r\n    address indexed nft,\r\n    uint tokenId,\r\n    uint price,\r\n    address indexed seller\r\n  );\r\n  // event  buyer indexed             .\r\n  event Bought (\r\n    uint itemId,\r\n    address indexed nft,\r\n    uint tokenId,\r\n    uint price,\r\n    address indexed seller,\r\n    address indexed buyer\r\n  );\r\n\r\nmapping(uint => Item) public items;\r\n\r\nconstructor(uint _feePercent) {\r\n  //   (msg.sender)        \r\n  // ->   nft ,       .(  )\r\n  feeAccount = payable(msg.sender);\r\n  feePercent = _feePercent;\r\n}\r\n\r\n// ERC721    ->   nft contract     nft .\r\n// nonReentrant(  modifier) :  makeItem     makeItem     \r\nfunction makeItem(NFT _nft, uint _tokenId, uint _price) external nonReentrant {\r\n  if (_nft.isRealization(_tokenId) == true) revert (\"This token is already realized\");\r\n  //   0  \r\n  require(_price > 0, \"Price must be greater than zero\" );\r\n\r\n  itemCount ++;\r\n\r\n  _nft.transferFrom(msg.sender, address(this), _tokenId);\r\n\r\n  items[itemCount] = Item (\r\n    itemCount,\r\n    _nft,\r\n    _tokenId,\r\n    _price,\r\n    payable(msg.sender),\r\n    false\r\n  );\r\n\r\n    emit Offered(itemCount, address(_nft), _tokenId, _price, msg.sender);\r\n  }\r\n\r\n  // payable     ,    .    \r\n  function purchaseItem(uint _itemId) external payable nonReentrant {\r\n    // NFT nft;\r\n    uint _totalPrice = getTotalPrice(_itemId);\r\n    // storage  items          \r\n    Item storage item = items[_itemId];\r\n    // if (nft.isRealization(item.tokenId) == true) revert (\"This token is already realized\");\r\n\r\n    // item   0      \r\n    require(_itemId > 0 && _itemId <= itemCount, \"item doesn't exist\");\r\n    // msg.value    _totalPrice   \r\n    require(msg.value >= _totalPrice, \"not enough ether to cover item price and market fee\");\r\n    // item   (item.sold boolean    false !  true    )\r\n    require(!item.sold, \"item already sold\");\r\n\r\n    //     \r\n    item.seller.transfer(item.price);\r\n    //    \r\n    feeAccount.transfer(_totalPrice - item.price);\r\n\r\n    item.sold = true;\r\n\r\n    item.nft.transferFrom(address(this), msg.sender, item.tokenId);\r\n\r\n    emit Bought(\r\n      _itemId,\r\n      address(item.nft),\r\n      item.tokenId,\r\n      item.price,\r\n      item.seller,\r\n      msg.sender\r\n    );\r\n  }\r\n\r\n  //    +   \r\n  function getTotalPrice(uint _itemId) public view returns(uint) {\r\n    return items[_itemId].price * (100 + feePercent) / 100;\r\n  }\r\n\r\n  function likeViewBatch(uint256[] memory ids) public view returns(Item[] memory) {\r\n    uint LikeItemsCount = ids.length;\r\n    uint currentIndex = 0;\r\n    Item[] memory likeItems = new Item[](LikeItemsCount);\r\n\r\n\r\n    for(uint i = 0; i < LikeItemsCount; i++) {\r\n      uint currentId = items[ids[i]].itemId;\r\n      Item storage currentItem = items[currentId];\r\n      likeItems[currentIndex] = currentItem;\r\n      currentIndex += 1;\r\n    }\r\n    return likeItems;\r\n  }\r\n  // nftId => onwerOf(tokenId) == marketplace.adress => true(    )\r\n  //    nft (const nft = await nft.addresss) _tokenId  \r\n  function nftInMarket(NFT _nft, uint _tokenId) public view returns(bool) {\r\n    if (0 < _tokenId && _tokenId <= _nft.tokenCount()) revert(\"nft is not exist\");\r\n    if (address(_nft.ownerOf(_tokenId)) != address(this)) revert(\"nft is not in the marketplace\");\r\n    // require(_nft.realization(tokenId), \"this nft can't in the marketplace\");\r\n    return true;\r\n  }\r\n\r\n  //   \r\n  function test(NFT _nft, uint _tokenId) public view returns(address) {\r\n    return _nft.ownerOf(_tokenId);\r\n  }\r\n\r\n\r\n  //      \r\n  // *  (   _itemId, nft  )\r\n  // * \r\n  //    1.    item    ==  nft   \r\n  //    2. item    ==  \r\n  //    3. item    sold  false   !item.sold == true item      \r\n  \r\n  //      \r\n  //   const cancleMarketItem = async (item) => {\r\n  //   await (await marketplace.cancelItem(item.itemId)).wait()\r\n  //   loadMarketplaceItems()\r\n  //    }\r\n\r\n  //   <Button onClick={() => cancleMarketItem(item)} variant=\"primary\" size=\"lg\">\r\n  //    \r\n  //    </Button>\r\n  //      \r\n  function cancelItem(uint _itemId) external nonReentrant {\r\n    Item storage item = items[_itemId];\r\n    if (msg.sender != item.seller) revert (\"This Item is not yours\");\r\n    require(_itemId > 0 && _itemId <= itemCount, \"item doesn't exist\");\r\n    require(!item.sold, \"item already sold\");\r\n\r\n    item.sold = true;\r\n\r\n    item.nft.transferFrom(address(this), msg.sender, item.tokenId);\r\n\r\n    emit Bought(\r\n      _itemId,\r\n      address(item.nft),\r\n      item.tokenId,\r\n      item.price,\r\n      item.seller,\r\n      msg.sender\r\n    );\r\n\r\n  }\r\n\r\n  \r\n  function lastValidTransaction(uint _tokenId) public view returns(uint) {\r\n    uint curr = itemCount;\r\n    Item memory ownership = items[curr];\r\n    if(ownership.tokenId == _tokenId) {\r\n      if(ownership.sold == false) {\r\n        return ownership.itemId;\r\n      }\r\n    } while(curr > 0) {\r\n      curr--;\r\n      ownership = items[curr];\r\n      if(ownership.tokenId == _tokenId){\r\n        if(ownership.sold == false) {\r\n          return ownership.itemId;\r\n        }\r\n      }\r\n    }\r\n    return 0;\r\n  }\r\n}//    =>     =>         \r\n//    (ownerOf(tokenId)) ==  \r\n// 1. nftId => ownerOf(tokenId) == window.ether~.request(  ) => true(  ==    )\r\n// 2. nftId => onwerOf(tokenId) == marketplace.adress => true(    )\r\n\r\n  ",
  "sourcePath": "C:\\Users\\SSAFY\\Desktop\\S06P22E206\\frontend\\src\\contracts\\Marketplace.sol",
  "compiler": {
    "name": "solc",
    "version": "0.8.13+commit.abaa5c0e.Emscripten.clang"
  },
  "schemaVersion": "3.4.6",
  "updatedAt": "2022-04-06T12:40:50.471Z",
  "networkType": "ethereum",
  "devdoc": {
    "kind": "dev",
    "methods": {},
    "version": 1
  },
  "userdoc": {
    "kind": "user",
    "methods": {},
    "version": 1
  }
}