{
  "contractName": "Marketplace",
  "abi": [
    {
      "inputs": [
        {
          "internalType": "uint256",
          "name": "_feePercent",
          "type": "uint256"
        }
      ],
      "stateMutability": "nonpayable",
      "type": "constructor"
    },
    {
      "anonymous": false,
      "inputs": [
        {
          "indexed": false,
          "internalType": "uint256",
          "name": "itemId",
          "type": "uint256"
        },
        {
          "indexed": true,
          "internalType": "address",
          "name": "nft",
          "type": "address"
        },
        {
          "indexed": false,
          "internalType": "uint256",
          "name": "tokenId",
          "type": "uint256"
        },
        {
          "indexed": false,
          "internalType": "uint256",
          "name": "price",
          "type": "uint256"
        },
        {
          "indexed": true,
          "internalType": "address",
          "name": "seller",
          "type": "address"
        },
        {
          "indexed": true,
          "internalType": "address",
          "name": "buyer",
          "type": "address"
        }
      ],
      "name": "Bought",
      "type": "event"
    },
    {
      "anonymous": false,
      "inputs": [
        {
          "indexed": false,
          "internalType": "uint256",
          "name": "itemId",
          "type": "uint256"
        },
        {
          "indexed": true,
          "internalType": "address",
          "name": "nft",
          "type": "address"
        },
        {
          "indexed": false,
          "internalType": "uint256",
          "name": "tokenId",
          "type": "uint256"
        },
        {
          "indexed": false,
          "internalType": "uint256",
          "name": "price",
          "type": "uint256"
        },
        {
          "indexed": true,
          "internalType": "address",
          "name": "seller",
          "type": "address"
        }
      ],
      "name": "Offered",
      "type": "event"
    },
    {
      "inputs": [],
      "name": "feeAccount",
      "outputs": [
        {
          "internalType": "address payable",
          "name": "",
          "type": "address"
        }
      ],
      "stateMutability": "view",
      "type": "function",
      "constant": true
    },
    {
      "inputs": [],
      "name": "feePercent",
      "outputs": [
        {
          "internalType": "uint256",
          "name": "",
          "type": "uint256"
        }
      ],
      "stateMutability": "view",
      "type": "function",
      "constant": true
    },
    {
      "inputs": [],
      "name": "itemCount",
      "outputs": [
        {
          "internalType": "uint256",
          "name": "",
          "type": "uint256"
        }
      ],
      "stateMutability": "view",
      "type": "function",
      "constant": true
    },
    {
      "inputs": [
        {
          "internalType": "uint256",
          "name": "",
          "type": "uint256"
        }
      ],
      "name": "items",
      "outputs": [
        {
          "internalType": "uint256",
          "name": "itemId",
          "type": "uint256"
        },
        {
          "internalType": "contract IERC721",
          "name": "nft",
          "type": "address"
        },
        {
          "internalType": "uint256",
          "name": "tokenId",
          "type": "uint256"
        },
        {
          "internalType": "uint256",
          "name": "price",
          "type": "uint256"
        },
        {
          "internalType": "address payable",
          "name": "seller",
          "type": "address"
        },
        {
          "internalType": "bool",
          "name": "sold",
          "type": "bool"
        }
      ],
      "stateMutability": "view",
      "type": "function",
      "constant": true
    },
    {
      "inputs": [
        {
          "internalType": "contract NFT",
          "name": "_nft",
          "type": "address"
        },
        {
          "internalType": "uint256",
          "name": "_tokenId",
          "type": "uint256"
        },
        {
          "internalType": "uint256",
          "name": "_price",
          "type": "uint256"
        }
      ],
      "name": "makeItem",
      "outputs": [],
      "stateMutability": "nonpayable",
      "type": "function"
    },
    {
      "inputs": [
        {
          "internalType": "uint256",
          "name": "_itemId",
          "type": "uint256"
        }
      ],
      "name": "purchaseItem",
      "outputs": [],
      "stateMutability": "payable",
      "type": "function",
      "payable": true
    },
    {
      "inputs": [
        {
          "internalType": "uint256",
          "name": "_itemId",
          "type": "uint256"
        }
      ],
      "name": "getTotalPrice",
      "outputs": [
        {
          "internalType": "uint256",
          "name": "",
          "type": "uint256"
        }
      ],
      "stateMutability": "view",
      "type": "function",
      "constant": true
    },
    {
      "inputs": [
        {
          "internalType": "uint256[]",
          "name": "ids",
          "type": "uint256[]"
        }
      ],
      "name": "likeViewBatch",
      "outputs": [
        {
          "components": [
            {
              "internalType": "uint256",
              "name": "itemId",
              "type": "uint256"
            },
            {
              "internalType": "contract IERC721",
              "name": "nft",
              "type": "address"
            },
            {
              "internalType": "uint256",
              "name": "tokenId",
              "type": "uint256"
            },
            {
              "internalType": "uint256",
              "name": "price",
              "type": "uint256"
            },
            {
              "internalType": "address payable",
              "name": "seller",
              "type": "address"
            },
            {
              "internalType": "bool",
              "name": "sold",
              "type": "bool"
            }
          ],
          "internalType": "struct Marketplace.Item[]",
          "name": "",
          "type": "tuple[]"
        }
      ],
      "stateMutability": "view",
      "type": "function",
      "constant": true
    },
    {
      "inputs": [
        {
          "internalType": "contract NFT",
          "name": "_nft",
          "type": "address"
        },
        {
          "internalType": "uint256",
          "name": "_tokenId",
          "type": "uint256"
        }
      ],
      "name": "nftInMarket",
      "outputs": [
        {
          "internalType": "bool",
          "name": "",
          "type": "bool"
        }
      ],
      "stateMutability": "view",
      "type": "function",
      "constant": true
    },
    {
      "inputs": [
        {
          "internalType": "contract NFT",
          "name": "_nft",
          "type": "address"
        },
        {
          "internalType": "uint256",
          "name": "_tokenId",
          "type": "uint256"
        }
      ],
      "name": "test",
      "outputs": [
        {
          "internalType": "address",
          "name": "",
          "type": "address"
        }
      ],
      "stateMutability": "view",
      "type": "function",
      "constant": true
    },
    {
      "inputs": [
        {
          "internalType": "uint256",
          "name": "_itemId",
          "type": "uint256"
        }
      ],
      "name": "cancelItem",
      "outputs": [],
      "stateMutability": "nonpayable",
      "type": "function"
    }
  ],
  "bytecode": "0x60c06040523480156200001157600080fd5b50604051620021ee380380620021ee8339818101604052810190620000379190620000c2565b60016000819055503373ffffffffffffffffffffffffffffffffffffffff1660808173ffffffffffffffffffffffffffffffffffffffff16815250508060a0818152505050620000f4565b600080fd5b6000819050919050565b6200009c8162000087565b8114620000a857600080fd5b50565b600081519050620000bc8162000091565b92915050565b600060208284031215620000db57620000da62000082565b5b6000620000eb84828501620000ab565b91505092915050565b60805160a0516120c662000128600039600081816108120152610af80152600081816105f10152610d1d01526120c66000f3fe60806040526004361061009c5760003560e01c8063a89a4db811610064578063a89a4db814610188578063ba14d606146101c5578063bfb231d214610202578063ca7dd37514610244578063d38ea5bf14610281578063fa00afc71461029d5761009c565b806351563f8e146100a157806365e17c9d146100ca5780636bfb0d01146100f55780636cb672e4146101205780637fd6f15c1461015d575b600080fd5b3480156100ad57600080fd5b506100c860048036038101906100c39190611361565b6102c6565b005b3480156100d657600080fd5b506100df6105ef565b6040516100ec91906113cf565b60405180910390f35b34801561010157600080fd5b5061010a610613565b60405161011791906113f9565b60405180910390f35b34801561012c57600080fd5b506101476004803603810190610142919061156d565b610619565b6040516101549190611778565b60405180910390f35b34801561016957600080fd5b50610172610810565b60405161017f91906113f9565b60405180910390f35b34801561019457600080fd5b506101af60048036038101906101aa91906117ea565b610834565b6040516101bc9190611839565b60405180910390f35b3480156101d157600080fd5b506101ec60048036038101906101e791906117ea565b6109e5565b6040516101f99190611863565b60405180910390f35b34801561020e57600080fd5b5061022960048036038101906102249190611361565b610a69565b60405161023b9695949392919061188d565b60405180910390f35b34801561025057600080fd5b5061026b60048036038101906102669190611361565b610af2565b60405161027891906113f9565b60405180910390f35b61029b60048036038101906102969190611361565b610b55565b005b3480156102a957600080fd5b506102c460048036038101906102bf91906118ee565b610f22565b005b60026000540361030b576040517f08c379a00000000000000000000000000000000000000000000000000000000081526004016103029061199e565b60405180910390fd5b600260008190555060006002600083815260200190815260200160002090508060040160009054906101000a900473ffffffffffffffffffffffffffffffffffffffff1673ffffffffffffffffffffffffffffffffffffffff163373ffffffffffffffffffffffffffffffffffffffff16146103bc576040517f08c379a00000000000000000000000000000000000000000000000000000000081526004016103b390611a0a565b60405180910390fd5b6000821180156103ce57506001548211155b61040d576040517f08c379a000000000000000000000000000000000000000000000000000000000815260040161040490611a76565b60405180910390fd5b8060040160149054906101000a900460ff161561045f576040517f08c379a000000000000000000000000000000000000000000000000000000000815260040161045690611ae2565b60405180910390fd5b60018160040160146101000a81548160ff0219169083151502179055508060010160009054906101000a900473ffffffffffffffffffffffffffffffffffffffff1673ffffffffffffffffffffffffffffffffffffffff166323b872dd303384600201546040518463ffffffff1660e01b81526004016104e193929190611b02565b600060405180830381600087803b1580156104fb57600080fd5b505af115801561050f573d6000803e3d6000fd5b505050503373ffffffffffffffffffffffffffffffffffffffff168160040160009054906101000a900473ffffffffffffffffffffffffffffffffffffffff1673ffffffffffffffffffffffffffffffffffffffff168260010160009054906101000a900473ffffffffffffffffffffffffffffffffffffffff1673ffffffffffffffffffffffffffffffffffffffff167f8b4c9c8a607d67b321582dd8461041b1dc2ceeca70c8b7f37f8e02095cf2e76d85856002015486600301546040516105db93929190611b39565b60405180910390a450600160008190555050565b7f000000000000000000000000000000000000000000000000000000000000000081565b60015481565b60606000825190506000808267ffffffffffffffff81111561063e5761063d61142a565b5b60405190808252806020026020018201604052801561067757816020015b6106646112b3565b81526020019060019003908161065c5790505b50905060005b838110156108045760006002600088848151811061069e5761069d611b70565b5b602002602001015181526020019081526020016000206000015490506000600260008381526020019081526020016000209050806040518060c0016040529081600082015481526020016001820160009054906101000a900473ffffffffffffffffffffffffffffffffffffffff1673ffffffffffffffffffffffffffffffffffffffff1673ffffffffffffffffffffffffffffffffffffffff16815260200160028201548152602001600382015481526020016004820160009054906101000a900473ffffffffffffffffffffffffffffffffffffffff1673ffffffffffffffffffffffffffffffffffffffff1673ffffffffffffffffffffffffffffffffffffffff1681526020016004820160149054906101000a900460ff1615151515815250508486815181106107d5576107d4611b70565b5b60200260200101819052506001856107ed9190611bce565b9450505080806107fc90611c24565b91505061067d565b50809350505050919050565b7f000000000000000000000000000000000000000000000000000000000000000081565b60008160001080156108b457508273ffffffffffffffffffffffffffffffffffffffff16639f181b5e6040518163ffffffff1660e01b8152600401602060405180830381865afa15801561088c573d6000803e3d6000fd5b505050506040513d601f19601f820116820180604052508101906108b09190611c81565b8211155b156108f4576040517f08c379a00000000000000000000000000000000000000000000000000000000081526004016108eb90611cfa565b60405180910390fd5b3073ffffffffffffffffffffffffffffffffffffffff168373ffffffffffffffffffffffffffffffffffffffff16636352211e846040518263ffffffff1660e01b815260040161094491906113f9565b602060405180830381865afa158015610961573d6000803e3d6000fd5b505050506040513d601f19601f820116820180604052508101906109859190611d46565b73ffffffffffffffffffffffffffffffffffffffff16146109db576040517f08c379a00000000000000000000000000000000000000000000000000000000081526004016109d290611dbf565b60405180910390fd5b6001905092915050565b60008273ffffffffffffffffffffffffffffffffffffffff16636352211e836040518263ffffffff1660e01b8152600401610a2091906113f9565b602060405180830381865afa158015610a3d573d6000803e3d6000fd5b505050506040513d601f19601f82011682018060405250810190610a619190611d46565b905092915050565b60026020528060005260406000206000915090508060000154908060010160009054906101000a900473ffffffffffffffffffffffffffffffffffffffff16908060020154908060030154908060040160009054906101000a900473ffffffffffffffffffffffffffffffffffffffff16908060040160149054906101000a900460ff16905086565b600060647f00000000000000000000000000000000000000000000000000000000000000006064610b239190611bce565b6002600085815260200190815260200160002060030154610b449190611ddf565b610b4e9190611e68565b9050919050565b600260005403610b9a576040517f08c379a0000000000000000000000000000000000000000000000000000000008152600401610b919061199e565b60405180910390fd5b60026000819055506000610bad82610af2565b90506000600260008481526020019081526020016000209050600083118015610bd857506001548311155b610c17576040517f08c379a0000000000000000000000000000000000000000000000000000000008152600401610c0e90611a76565b60405180910390fd5b81341015610c5a576040517f08c379a0000000000000000000000000000000000000000000000000000000008152600401610c5190611f0b565b60405180910390fd5b8060040160149054906101000a900460ff1615610cac576040517f08c379a0000000000000000000000000000000000000000000000000000000008152600401610ca390611ae2565b60405180910390fd5b8060040160009054906101000a900473ffffffffffffffffffffffffffffffffffffffff1673ffffffffffffffffffffffffffffffffffffffff166108fc82600301549081150290604051600060405180830381858888f19350505050158015610d1a573d6000803e3d6000fd5b507f000000000000000000000000000000000000000000000000000000000000000073ffffffffffffffffffffffffffffffffffffffff166108fc826003015484610d659190611f2b565b9081150290604051600060405180830381858888f19350505050158015610d90573d6000803e3d6000fd5b5060018160040160146101000a81548160ff0219169083151502179055508060010160009054906101000a900473ffffffffffffffffffffffffffffffffffffffff1673ffffffffffffffffffffffffffffffffffffffff166323b872dd303384600201546040518463ffffffff1660e01b8152600401610e1393929190611b02565b600060405180830381600087803b158015610e2d57600080fd5b505af1158015610e41573d6000803e3d6000fd5b505050503373ffffffffffffffffffffffffffffffffffffffff168160040160009054906101000a900473ffffffffffffffffffffffffffffffffffffffff1673ffffffffffffffffffffffffffffffffffffffff168260010160009054906101000a900473ffffffffffffffffffffffffffffffffffffffff1673ffffffffffffffffffffffffffffffffffffffff167f8b4c9c8a607d67b321582dd8461041b1dc2ceeca70c8b7f37f8e02095cf2e76d8685600201548660030154604051610f0d93929190611b39565b60405180910390a45050600160008190555050565b600260005403610f67576040517f08c379a0000000000000000000000000000000000000000000000000000000008152600401610f5e9061199e565b60405180910390fd5b6002600081905550600115158373ffffffffffffffffffffffffffffffffffffffff1663c1849cde846040518263ffffffff1660e01b8152600401610fac91906113f9565b602060405180830381865afa158015610fc9573d6000803e3d6000fd5b505050506040513d601f19601f82011682018060405250810190610fed9190611f8b565b15150361102f576040517f08c379a000000000000000000000000000000000000000000000000000000000815260040161102690612004565b60405180910390fd5b60008111611072576040517f08c379a000000000000000000000000000000000000000000000000000000000815260040161106990612070565b60405180910390fd5b6001600081548092919061108590611c24565b91905055508273ffffffffffffffffffffffffffffffffffffffff166323b872dd3330856040518463ffffffff1660e01b81526004016110c793929190611b02565b600060405180830381600087803b1580156110e157600080fd5b505af11580156110f5573d6000803e3d6000fd5b505050506040518060c0016040528060015481526020018473ffffffffffffffffffffffffffffffffffffffff1681526020018381526020018281526020013373ffffffffffffffffffffffffffffffffffffffff168152602001600015158152506002600060015481526020019081526020016000206000820151816000015560208201518160010160006101000a81548173ffffffffffffffffffffffffffffffffffffffff021916908373ffffffffffffffffffffffffffffffffffffffff160217905550604082015181600201556060820151816003015560808201518160040160006101000a81548173ffffffffffffffffffffffffffffffffffffffff021916908373ffffffffffffffffffffffffffffffffffffffff16021790555060a08201518160040160146101000a81548160ff0219169083151502179055509050503373ffffffffffffffffffffffffffffffffffffffff168373ffffffffffffffffffffffffffffffffffffffff167f655a0cf9c8db81512be9a76dc1c5ae5380b8816ce6ad659cd61b715e2999d59a600154858560405161129e93929190611b39565b60405180910390a36001600081905550505050565b6040518060c0016040528060008152602001600073ffffffffffffffffffffffffffffffffffffffff1681526020016000815260200160008152602001600073ffffffffffffffffffffffffffffffffffffffff1681526020016000151581525090565b6000604051905090565b600080fd5b600080fd5b6000819050919050565b61133e8161132b565b811461134957600080fd5b50565b60008135905061135b81611335565b92915050565b60006020828403121561137757611376611321565b5b60006113858482850161134c565b91505092915050565b600073ffffffffffffffffffffffffffffffffffffffff82169050919050565b60006113b98261138e565b9050919050565b6113c9816113ae565b82525050565b60006020820190506113e460008301846113c0565b92915050565b6113f38161132b565b82525050565b600060208201905061140e60008301846113ea565b92915050565b600080fd5b6000601f19601f8301169050919050565b7f4e487b7100000000000000000000000000000000000000000000000000000000600052604160045260246000fd5b61146282611419565b810181811067ffffffffffffffff821117156114815761148061142a565b5b80604052505050565b6000611494611317565b90506114a08282611459565b919050565b600067ffffffffffffffff8211156114c0576114bf61142a565b5b602082029050602081019050919050565b600080fd5b60006114e96114e4846114a5565b61148a565b9050808382526020820190506020840283018581111561150c5761150b6114d1565b5b835b818110156115355780611521888261134c565b84526020840193505060208101905061150e565b5050509392505050565b600082601f83011261155457611553611414565b5b81356115648482602086016114d6565b91505092915050565b60006020828403121561158357611582611321565b5b600082013567ffffffffffffffff8111156115a1576115a0611326565b5b6115ad8482850161153f565b91505092915050565b600081519050919050565b600082825260208201905092915050565b6000819050602082019050919050565b6115eb8161132b565b82525050565b6000819050919050565b600061161661161161160c8461138e565b6115f1565b61138e565b9050919050565b6000611628826115fb565b9050919050565b600061163a8261161d565b9050919050565b61164a8161162f565b82525050565b611659816113ae565b82525050565b60008115159050919050565b6116748161165f565b82525050565b60c08201600082015161169060008501826115e2565b5060208201516116a36020850182611641565b5060408201516116b660408501826115e2565b5060608201516116c960608501826115e2565b5060808201516116dc6080850182611650565b5060a08201516116ef60a085018261166b565b50505050565b6000611701838361167a565b60c08301905092915050565b6000602082019050919050565b6000611725826115b6565b61172f81856115c1565b935061173a836115d2565b8060005b8381101561176b57815161175288826116f5565b975061175d8361170d565b92505060018101905061173e565b5085935050505092915050565b60006020820190508181036000830152611792818461171a565b905092915050565b60006117a58261138e565b9050919050565b60006117b78261179a565b9050919050565b6117c7816117ac565b81146117d257600080fd5b50565b6000813590506117e4816117be565b92915050565b6000806040838503121561180157611800611321565b5b600061180f858286016117d5565b92505060206118208582860161134c565b9150509250929050565b6118338161165f565b82525050565b600060208201905061184e600083018461182a565b92915050565b61185d8161179a565b82525050565b60006020820190506118786000830184611854565b92915050565b6118878161162f565b82525050565b600060c0820190506118a260008301896113ea565b6118af602083018861187e565b6118bc60408301876113ea565b6118c960608301866113ea565b6118d660808301856113c0565b6118e360a083018461182a565b979650505050505050565b60008060006060848603121561190757611906611321565b5b6000611915868287016117d5565b93505060206119268682870161134c565b92505060406119378682870161134c565b9150509250925092565b600082825260208201905092915050565b7f5265656e7472616e637947756172643a207265656e7472616e742063616c6c00600082015250565b6000611988601f83611941565b915061199382611952565b602082019050919050565b600060208201905081810360008301526119b78161197b565b9050919050565b7f54686973204974656d206973206e6f7420796f75727300000000000000000000600082015250565b60006119f4601683611941565b91506119ff826119be565b602082019050919050565b60006020820190508181036000830152611a23816119e7565b9050919050565b7f6974656d20646f65736e27742065786973740000000000000000000000000000600082015250565b6000611a60601283611941565b9150611a6b82611a2a565b602082019050919050565b60006020820190508181036000830152611a8f81611a53565b9050919050565b7f6974656d20616c726561647920736f6c64000000000000000000000000000000600082015250565b6000611acc601183611941565b9150611ad782611a96565b602082019050919050565b60006020820190508181036000830152611afb81611abf565b9050919050565b6000606082019050611b176000830186611854565b611b246020830185611854565b611b3160408301846113ea565b949350505050565b6000606082019050611b4e60008301866113ea565b611b5b60208301856113ea565b611b6860408301846113ea565b949350505050565b7f4e487b7100000000000000000000000000000000000000000000000000000000600052603260045260246000fd5b7f4e487b7100000000000000000000000000000000000000000000000000000000600052601160045260246000fd5b6000611bd98261132b565b9150611be48361132b565b9250827fffffffffffffffffffffffffffffffffffffffffffffffffffffffffffffffff03821115611c1957611c18611b9f565b5b828201905092915050565b6000611c2f8261132b565b91507fffffffffffffffffffffffffffffffffffffffffffffffffffffffffffffffff8203611c6157611c60611b9f565b5b600182019050919050565b600081519050611c7b81611335565b92915050565b600060208284031215611c9757611c96611321565b5b6000611ca584828501611c6c565b91505092915050565b7f6e6674206973206e6f7420657869737400000000000000000000000000000000600082015250565b6000611ce4601083611941565b9150611cef82611cae565b602082019050919050565b60006020820190508181036000830152611d1381611cd7565b9050919050565b611d238161179a565b8114611d2e57600080fd5b50565b600081519050611d4081611d1a565b92915050565b600060208284031215611d5c57611d5b611321565b5b6000611d6a84828501611d31565b91505092915050565b7f6e6674206973206e6f7420696e20746865206d61726b6574706c616365000000600082015250565b6000611da9601d83611941565b9150611db482611d73565b602082019050919050565b60006020820190508181036000830152611dd881611d9c565b9050919050565b6000611dea8261132b565b9150611df58361132b565b9250817fffffffffffffffffffffffffffffffffffffffffffffffffffffffffffffffff0483118215151615611e2e57611e2d611b9f565b5b828202905092915050565b7f4e487b7100000000000000000000000000000000000000000000000000000000600052601260045260246000fd5b6000611e738261132b565b9150611e7e8361132b565b925082611e8e57611e8d611e39565b5b828204905092915050565b7f6e6f7420656e6f75676820657468657220746f20636f766572206974656d207060008201527f7269636520616e64206d61726b65742066656500000000000000000000000000602082015250565b6000611ef5603383611941565b9150611f0082611e99565b604082019050919050565b60006020820190508181036000830152611f2481611ee8565b9050919050565b6000611f368261132b565b9150611f418361132b565b925082821015611f5457611f53611b9f565b5b828203905092915050565b611f688161165f565b8114611f7357600080fd5b50565b600081519050611f8581611f5f565b92915050565b600060208284031215611fa157611fa0611321565b5b6000611faf84828501611f76565b91505092915050565b7f5468697320746f6b656e20697320616c7265616479207265616c697a65640000600082015250565b6000611fee601e83611941565b9150611ff982611fb8565b602082019050919050565b6000602082019050818103600083015261201d81611fe1565b9050919050565b7f5072696365206d7573742062652067726561746572207468616e207a65726f00600082015250565b600061205a601f83611941565b915061206582612024565b602082019050919050565b600060208201905081810360008301526120898161204d565b905091905056fea2646970667358221220a591fc3554f13470291c3d28e082120b87c5184785fe55642470eac3538be16964736f6c634300080d0033",
  "immutableReferences": {
    "1759": [
      {
        "length": 32,
        "start": 1521
      },
      {
        "length": 32,
        "start": 3357
      }
    ],
    "1761": [
      {
        "length": 32,
        "start": 2066
      },
      {
        "length": 32,
        "start": 2808
      }
    ]
  },
  "source": "// SPDX-License-Identifier: MIT\r\npragma solidity ^0.8.4;\r\n\r\nimport \"@openzeppelin/contracts/token/ERC721/IERC721.sol\";\r\nimport \"./NFT.sol\";\r\n\r\n//   \r\nimport \"@openzeppelin/contracts/security/ReentrancyGuard.sol\";\r\n\r\ncontract Marketplace is ReentrancyGuard {\r\n\r\n  //  immutable :     ( =     .)\r\n  //                     ( )  . \r\n\r\n\r\n  //  nft   \r\n  address payable public immutable feeAccount;\r\n  \r\n  // \r\n  uint public immutable feePercent;\r\n\r\n  uint public itemCount;\r\n\r\n  //    \r\n  //   mapping       \r\n  struct Item {\r\n    uint itemId;\r\n    // nft \r\n    IERC721 nft;\r\n    uint tokenId;\r\n    uint price;\r\n    address payable seller;\r\n    bool sold;\r\n  }\r\n\r\n  event Offered (\r\n    uint itemId,\r\n    address indexed nft,\r\n    uint tokenId,\r\n    uint price,\r\n    address indexed seller\r\n  );\r\n  // event  buyer indexed             .\r\n  event Bought (\r\n    uint itemId,\r\n    address indexed nft,\r\n    uint tokenId,\r\n    uint price,\r\n    address indexed seller,\r\n    address indexed buyer\r\n  );\r\n\r\nmapping(uint => Item) public items;\r\n\r\nconstructor(uint _feePercent) {\r\n  //   (msg.sender)        \r\n  // ->   nft ,       .(  )\r\n  feeAccount = payable(msg.sender);\r\n  feePercent = _feePercent;\r\n}\r\n\r\n// ERC721    ->   nft contract     nft .\r\n// nonReentrant(  modifier) :  makeItem     makeItem     \r\nfunction makeItem(NFT _nft, uint _tokenId, uint _price) external nonReentrant {\r\n  if (_nft.isRealization(_tokenId) == true) revert (\"This token is already realized\");\r\n  //   0  \r\n  require(_price > 0, \"Price must be greater than zero\" );\r\n\r\n  itemCount ++;\r\n\r\n  _nft.transferFrom(msg.sender, address(this), _tokenId);\r\n\r\n  items[itemCount] = Item (\r\n    itemCount,\r\n    _nft,\r\n    _tokenId,\r\n    _price,\r\n    payable(msg.sender),\r\n    false\r\n  );\r\n\r\n    emit Offered(itemCount, address(_nft), _tokenId, _price, msg.sender);\r\n  }\r\n\r\n  // payable     ,    .    \r\n  function purchaseItem(uint _itemId) external payable nonReentrant {\r\n    // NFT nft;\r\n    uint _totalPrice = getTotalPrice(_itemId);\r\n    // storage  items          \r\n    Item storage item = items[_itemId];\r\n    // if (nft.isRealization(item.tokenId) == true) revert (\"This token is already realized\");\r\n\r\n    // item   0      \r\n    require(_itemId > 0 && _itemId <= itemCount, \"item doesn't exist\");\r\n    // msg.value    _totalPrice   \r\n    require(msg.value >= _totalPrice, \"not enough ether to cover item price and market fee\");\r\n    // item   (item.sold boolean    false !  true    )\r\n    require(!item.sold, \"item already sold\");\r\n\r\n    //     \r\n    item.seller.transfer(item.price);\r\n    //    \r\n    feeAccount.transfer(_totalPrice - item.price);\r\n\r\n    item.sold = true;\r\n\r\n    item.nft.transferFrom(address(this), msg.sender, item.tokenId);\r\n\r\n    emit Bought(\r\n      _itemId,\r\n      address(item.nft),\r\n      item.tokenId,\r\n      item.price,\r\n      item.seller,\r\n      msg.sender\r\n    );\r\n  }\r\n\r\n  //    +   \r\n  function getTotalPrice(uint _itemId) public view returns(uint) {\r\n    return items[_itemId].price * (100 + feePercent) / 100;\r\n  }\r\n\r\n  function likeViewBatch(uint256[] memory ids) public view returns(Item[] memory) {\r\n    uint LikeItemsCount = ids.length;\r\n    uint currentIndex = 0;\r\n    Item[] memory likeItems = new Item[](LikeItemsCount);\r\n\r\n\r\n    for(uint i = 0; i < LikeItemsCount; i++) {\r\n      uint currentId = items[ids[i]].itemId;\r\n      Item storage currentItem = items[currentId];\r\n      likeItems[currentIndex] = currentItem;\r\n      currentIndex += 1;\r\n    }\r\n    return likeItems;\r\n  }\r\n  // nftId => onwerOf(tokenId) == marketplace.adress => true(    )\r\n  //    nft (const nft = await nft.addresss) _tokenId  \r\n  function nftInMarket(NFT _nft, uint _tokenId) public view returns(bool) {\r\n    if (0 < _tokenId && _tokenId <= _nft.tokenCount()) revert(\"nft is not exist\");\r\n    if (address(_nft.ownerOf(_tokenId)) != address(this)) revert(\"nft is not in the marketplace\");\r\n    // require(_nft.realization(tokenId), \"this nft can't in the marketplace\");\r\n    return true;\r\n  }\r\n\r\n  //   \r\n  function test(NFT _nft, uint _tokenId) public view returns(address) {\r\n    return _nft.ownerOf(_tokenId);\r\n  }\r\n\r\n\r\n  //      \r\n  // *  (   _itemId, nft  )\r\n  // * \r\n  //    1.    item    ==  nft   \r\n  //    2. item    ==  \r\n  //    3. item    sold  false   !item.sold == true item      \r\n  \r\n  //      \r\n  //   const cancleMarketItem = async (item) => {\r\n  //   await (await marketplace.cancelItem(item.itemId)).wait()\r\n  //   loadMarketplaceItems()\r\n  //    }\r\n\r\n  //   <Button onClick={() => cancleMarketItem(item)} variant=\"primary\" size=\"lg\">\r\n  //    \r\n  //    </Button>\r\n  //      \r\n  function cancelItem(uint _itemId) external nonReentrant {\r\n    Item storage item = items[_itemId];\r\n    if (msg.sender != item.seller) revert (\"This Item is not yours\");\r\n    require(_itemId > 0 && _itemId <= itemCount, \"item doesn't exist\");\r\n    require(!item.sold, \"item already sold\");\r\n\r\n    item.sold = true;\r\n\r\n    item.nft.transferFrom(address(this), msg.sender, item.tokenId);\r\n\r\n    emit Bought(\r\n      _itemId,\r\n      address(item.nft),\r\n      item.tokenId,\r\n      item.price,\r\n      item.seller,\r\n      msg.sender\r\n    );\r\n\r\n  }\r\n  \r\n}//    =>     =>         \r\n//    (ownerOf(tokenId)) ==  \r\n// 1. nftId => ownerOf(tokenId) == window.ether~.request(  ) => true(  ==    )\r\n// 2. nftId => onwerOf(tokenId) == marketplace.adress => true(    )",
  "sourcePath": "C:\\Users\\SSAFY\\Desktop\\S06P22E206\\frontend\\src\\contracts\\Marketplace.sol",
  "compiler": {
    "name": "solc",
    "version": "0.8.13+commit.abaa5c0e.Emscripten.clang"
  },
  "schemaVersion": "3.4.6",
  "updatedAt": "2022-04-05T02:43:05.961Z",
  "networkType": "ethereum",
  "devdoc": {
    "kind": "dev",
    "methods": {},
    "version": 1
  },
  "userdoc": {
    "kind": "user",
    "methods": {},
    "version": 1
  }
}