{
  "contractName": "NFT",
  "abi": [
    {
      "inputs": [],
      "stateMutability": "nonpayable",
      "type": "constructor"
    },
    {
      "anonymous": false,
      "inputs": [
        {
          "indexed": true,
          "internalType": "address",
          "name": "owner",
          "type": "address"
        },
        {
          "indexed": true,
          "internalType": "address",
          "name": "approved",
          "type": "address"
        },
        {
          "indexed": true,
          "internalType": "uint256",
          "name": "tokenId",
          "type": "uint256"
        }
      ],
      "name": "Approval",
      "type": "event"
    },
    {
      "anonymous": false,
      "inputs": [
        {
          "indexed": true,
          "internalType": "address",
          "name": "owner",
          "type": "address"
        },
        {
          "indexed": true,
          "internalType": "address",
          "name": "operator",
          "type": "address"
        },
        {
          "indexed": false,
          "internalType": "bool",
          "name": "approved",
          "type": "bool"
        }
      ],
      "name": "ApprovalForAll",
      "type": "event"
    },
    {
      "anonymous": false,
      "inputs": [
        {
          "indexed": true,
          "internalType": "address",
          "name": "from",
          "type": "address"
        },
        {
          "indexed": true,
          "internalType": "address",
          "name": "to",
          "type": "address"
        },
        {
          "indexed": true,
          "internalType": "uint256",
          "name": "tokenId",
          "type": "uint256"
        }
      ],
      "name": "Transfer",
      "type": "event"
    },
    {
      "inputs": [
        {
          "internalType": "address",
          "name": "to",
          "type": "address"
        },
        {
          "internalType": "uint256",
          "name": "tokenId",
          "type": "uint256"
        }
      ],
      "name": "approve",
      "outputs": [],
      "stateMutability": "nonpayable",
      "type": "function"
    },
    {
      "inputs": [
        {
          "internalType": "address",
          "name": "owner",
          "type": "address"
        }
      ],
      "name": "balanceOf",
      "outputs": [
        {
          "internalType": "uint256",
          "name": "",
          "type": "uint256"
        }
      ],
      "stateMutability": "view",
      "type": "function",
      "constant": true
    },
    {
      "inputs": [
        {
          "internalType": "uint256",
          "name": "tokenId",
          "type": "uint256"
        }
      ],
      "name": "getApproved",
      "outputs": [
        {
          "internalType": "address",
          "name": "",
          "type": "address"
        }
      ],
      "stateMutability": "view",
      "type": "function",
      "constant": true
    },
    {
      "inputs": [
        {
          "internalType": "address",
          "name": "owner",
          "type": "address"
        },
        {
          "internalType": "address",
          "name": "operator",
          "type": "address"
        }
      ],
      "name": "isApprovedForAll",
      "outputs": [
        {
          "internalType": "bool",
          "name": "",
          "type": "bool"
        }
      ],
      "stateMutability": "view",
      "type": "function",
      "constant": true
    },
    {
      "inputs": [],
      "name": "name",
      "outputs": [
        {
          "internalType": "string",
          "name": "",
          "type": "string"
        }
      ],
      "stateMutability": "view",
      "type": "function",
      "constant": true
    },
    {
      "inputs": [
        {
          "internalType": "uint256",
          "name": "tokenId",
          "type": "uint256"
        }
      ],
      "name": "ownerOf",
      "outputs": [
        {
          "internalType": "address",
          "name": "",
          "type": "address"
        }
      ],
      "stateMutability": "view",
      "type": "function",
      "constant": true
    },
    {
      "inputs": [
        {
          "internalType": "address",
          "name": "from",
          "type": "address"
        },
        {
          "internalType": "address",
          "name": "to",
          "type": "address"
        },
        {
          "internalType": "uint256",
          "name": "tokenId",
          "type": "uint256"
        }
      ],
      "name": "safeTransferFrom",
      "outputs": [],
      "stateMutability": "nonpayable",
      "type": "function"
    },
    {
      "inputs": [
        {
          "internalType": "address",
          "name": "from",
          "type": "address"
        },
        {
          "internalType": "address",
          "name": "to",
          "type": "address"
        },
        {
          "internalType": "uint256",
          "name": "tokenId",
          "type": "uint256"
        },
        {
          "internalType": "bytes",
          "name": "_data",
          "type": "bytes"
        }
      ],
      "name": "safeTransferFrom",
      "outputs": [],
      "stateMutability": "nonpayable",
      "type": "function"
    },
    {
      "inputs": [
        {
          "internalType": "address",
          "name": "operator",
          "type": "address"
        },
        {
          "internalType": "bool",
          "name": "approved",
          "type": "bool"
        }
      ],
      "name": "setApprovalForAll",
      "outputs": [],
      "stateMutability": "nonpayable",
      "type": "function"
    },
    {
      "inputs": [
        {
          "internalType": "bytes4",
          "name": "interfaceId",
          "type": "bytes4"
        }
      ],
      "name": "supportsInterface",
      "outputs": [
        {
          "internalType": "bool",
          "name": "",
          "type": "bool"
        }
      ],
      "stateMutability": "view",
      "type": "function",
      "constant": true
    },
    {
      "inputs": [],
      "name": "symbol",
      "outputs": [
        {
          "internalType": "string",
          "name": "",
          "type": "string"
        }
      ],
      "stateMutability": "view",
      "type": "function",
      "constant": true
    },
    {
      "inputs": [],
      "name": "tokenCount",
      "outputs": [
        {
          "internalType": "uint256",
          "name": "",
          "type": "uint256"
        }
      ],
      "stateMutability": "view",
      "type": "function",
      "constant": true
    },
    {
      "inputs": [
        {
          "internalType": "uint256",
          "name": "tokenId",
          "type": "uint256"
        }
      ],
      "name": "tokenURI",
      "outputs": [
        {
          "internalType": "string",
          "name": "",
          "type": "string"
        }
      ],
      "stateMutability": "view",
      "type": "function",
      "constant": true
    },
    {
      "inputs": [
        {
          "internalType": "address",
          "name": "from",
          "type": "address"
        },
        {
          "internalType": "address",
          "name": "to",
          "type": "address"
        },
        {
          "internalType": "uint256",
          "name": "tokenId",
          "type": "uint256"
        }
      ],
      "name": "transferFrom",
      "outputs": [],
      "stateMutability": "nonpayable",
      "type": "function"
    },
    {
      "inputs": [
        {
          "internalType": "string",
          "name": "_tokenURI",
          "type": "string"
        }
      ],
      "name": "mint",
      "outputs": [
        {
          "internalType": "uint256",
          "name": "",
          "type": "uint256"
        }
      ],
      "stateMutability": "nonpayable",
      "type": "function"
    },
    {
      "inputs": [
        {
          "internalType": "uint256",
          "name": "_tokenId",
          "type": "uint256"
        }
      ],
      "name": "isRealization",
      "outputs": [
        {
          "internalType": "bool",
          "name": "",
          "type": "bool"
        }
      ],
      "stateMutability": "view",
      "type": "function",
      "constant": true
    },
    {
      "inputs": [
        {
          "internalType": "address",
          "name": "marketplaceAddr",
          "type": "address"
        },
        {
          "internalType": "uint256",
          "name": "_tokenId",
          "type": "uint256"
        }
      ],
      "name": "Realization",
      "outputs": [],
      "stateMutability": "nonpayable",
      "type": "function"
    }
  ],
  "bytecode": "0x60806040523480156200001157600080fd5b506040518060400160405280600881526020017f44417070204e46540000000000000000000000000000000000000000000000008152506040518060400160405280600481526020017f4441505000000000000000000000000000000000000000000000000000000000815250816000908051906020019062000096929190620000b8565b508060019080519060200190620000af929190620000b8565b505050620001cc565b828054620000c69062000197565b90600052602060002090601f016020900481019282620000ea576000855562000136565b82601f106200010557805160ff191683800117855562000136565b8280016001018555821562000136579182015b828111156200013557825182559160200191906001019062000118565b5b50905062000145919062000149565b5090565b5b80821115620001645760008160009055506001016200014a565b5090565b7f4e487b7100000000000000000000000000000000000000000000000000000000600052602260045260246000fd5b60006002820490506001821680620001b057607f821691505b602082108103620001c657620001c562000168565b5b50919050565b612fc480620001dc6000396000f3fe608060405234801561001057600080fd5b506004361061010b5760003560e01c806370a08231116100a2578063b88d4fde11610071578063b88d4fde146102b6578063c1849cde146102d2578063c87b56dd14610302578063d85d3d2714610332578063e985e9c5146103625761010b565b806370a082311461022e57806395d89b411461025e5780639f181b5e1461027c578063a22cb4651461029a5761010b565b8063122bcae6116100de578063122bcae6146101aa57806323b872dd146101c657806342842e0e146101e25780636352211e146101fe5761010b565b806301ffc9a71461011057806306fdde0314610140578063081812fc1461015e578063095ea7b31461018e575b600080fd5b61012a60048036038101906101259190611bd1565b610392565b6040516101379190611c19565b60405180910390f35b610148610474565b6040516101559190611ccd565b60405180910390f35b61017860048036038101906101739190611d25565b610506565b6040516101859190611d93565b60405180910390f35b6101a860048036038101906101a39190611dda565b61058b565b005b6101c460048036038101906101bf9190611dda565b6106a2565b005b6101e060048036038101906101db9190611e1a565b610810565b005b6101fc60048036038101906101f79190611e1a565b610870565b005b61021860048036038101906102139190611d25565b610890565b6040516102259190611d93565b60405180910390f35b61024860048036038101906102439190611e6d565b610941565b6040516102559190611ea9565b60405180910390f35b6102666109f8565b6040516102739190611ccd565b60405180910390f35b610284610a8a565b6040516102919190611ea9565b60405180910390f35b6102b460048036038101906102af9190611ef0565b610a90565b005b6102d060048036038101906102cb9190612065565b610aa6565b005b6102ec60048036038101906102e79190611d25565b610b08565b6040516102f99190611c19565b60405180910390f35b61031c60048036038101906103179190611d25565b610b35565b6040516103299190611ccd565b60405180910390f35b61034c60048036038101906103479190612189565b610c86565b6040516103599190611ea9565b60405180910390f35b61037c600480360381019061037791906121d2565b610cf3565b6040516103899190611c19565b60405180910390f35b60007f80ac58cd000000000000000000000000000000000000000000000000000000007bffffffffffffffffffffffffffffffffffffffffffffffffffffffff1916827bffffffffffffffffffffffffffffffffffffffffffffffffffffffff1916148061045d57507f5b5e139f000000000000000000000000000000000000000000000000000000007bffffffffffffffffffffffffffffffffffffffffffffffffffffffff1916827bffffffffffffffffffffffffffffffffffffffffffffffffffffffff1916145b8061046d575061046c82610d87565b5b9050919050565b60606000805461048390612241565b80601f01602080910402602001604051908101604052809291908181526020018280546104af90612241565b80156104fc5780601f106104d1576101008083540402835291602001916104fc565b820191906000526020600020905b8154815290600101906020018083116104df57829003601f168201915b5050505050905090565b600061051182610df1565b610550576040517f08c379a0000000000000000000000000000000000000000000000000000000008152600401610547906122e4565b60405180910390fd5b6004600083815260200190815260200160002060009054906101000a900473ffffffffffffffffffffffffffffffffffffffff169050919050565b600061059682610890565b90508073ffffffffffffffffffffffffffffffffffffffff168373ffffffffffffffffffffffffffffffffffffffff1603610606576040517f08c379a00000000000000000000000000000000000000000000000000000000081526004016105fd90612376565b60405180910390fd5b8073ffffffffffffffffffffffffffffffffffffffff16610625610e5d565b73ffffffffffffffffffffffffffffffffffffffff16148061065457506106538161064e610e5d565b610cf3565b5b610693576040517f08c379a000000000000000000000000000000000000000000000000000000000815260040161068a90612408565b60405180910390fd5b61069d8383610e65565b505050565b3373ffffffffffffffffffffffffffffffffffffffff166106c282610890565b73ffffffffffffffffffffffffffffffffffffffff1614610718576040517f08c379a000000000000000000000000000000000000000000000000000000000815260040161070f90612474565b60405180910390fd5b61072181610890565b73ffffffffffffffffffffffffffffffffffffffff168273ffffffffffffffffffffffffffffffffffffffff160361078e576040517f08c379a000000000000000000000000000000000000000000000000000000000815260040161078590612506565b60405180910390fd5b6001151561079b82610b08565b1515036107dd576040517f08c379a00000000000000000000000000000000000000000000000000000000081526004016107d490612572565b60405180910390fd5b60016008600083815260200190815260200160002060000160006101000a81548160ff0219169083151502179055505050565b61082161081b610e5d565b82610f1e565b610860576040517f08c379a000000000000000000000000000000000000000000000000000000000815260040161085790612604565b60405180910390fd5b61086b838383610ffc565b505050565b61088b83838360405180602001604052806000815250610aa6565b505050565b6000806002600084815260200190815260200160002060009054906101000a900473ffffffffffffffffffffffffffffffffffffffff169050600073ffffffffffffffffffffffffffffffffffffffff168173ffffffffffffffffffffffffffffffffffffffff1603610938576040517f08c379a000000000000000000000000000000000000000000000000000000000815260040161092f90612696565b60405180910390fd5b80915050919050565b60008073ffffffffffffffffffffffffffffffffffffffff168273ffffffffffffffffffffffffffffffffffffffff16036109b1576040517f08c379a00000000000000000000000000000000000000000000000000000000081526004016109a890612728565b60405180910390fd5b600360008373ffffffffffffffffffffffffffffffffffffffff1673ffffffffffffffffffffffffffffffffffffffff168152602001908152602001600020549050919050565b606060018054610a0790612241565b80601f0160208091040260200160405190810160405280929190818152602001828054610a3390612241565b8015610a805780601f10610a5557610100808354040283529160200191610a80565b820191906000526020600020905b815481529060010190602001808311610a6357829003601f168201915b5050505050905090565b60075481565b610aa2610a9b610e5d565b8383611262565b5050565b610ab7610ab1610e5d565b83610f1e565b610af6576040517f08c379a0000000000000000000000000000000000000000000000000000000008152600401610aed90612604565b60405180910390fd5b610b02848484846113ce565b50505050565b60006008600083815260200190815260200160002060000160009054906101000a900460ff169050919050565b6060610b4082610df1565b610b7f576040517f08c379a0000000000000000000000000000000000000000000000000000000008152600401610b76906127ba565b60405180910390fd5b6000600660008481526020019081526020016000208054610b9f90612241565b80601f0160208091040260200160405190810160405280929190818152602001828054610bcb90612241565b8015610c185780601f10610bed57610100808354040283529160200191610c18565b820191906000526020600020905b815481529060010190602001808311610bfb57829003601f168201915b505050505090506000610c2961142a565b90506000815103610c3e578192505050610c81565b600082511115610c73578082604051602001610c5b929190612816565b60405160208183030381529060405292505050610c81565b610c7c84611441565b925050505b919050565b600060076000815480929190610c9b90612869565b9190505550610cac336007546114e8565b600060086000600754815260200190815260200160002060000160006101000a81548160ff021916908315150217905550610ce960075483611506565b6007549050919050565b6000600560008473ffffffffffffffffffffffffffffffffffffffff1673ffffffffffffffffffffffffffffffffffffffff16815260200190815260200160002060008373ffffffffffffffffffffffffffffffffffffffff1673ffffffffffffffffffffffffffffffffffffffff16815260200190815260200160002060009054906101000a900460ff16905092915050565b60007f01ffc9a7000000000000000000000000000000000000000000000000000000007bffffffffffffffffffffffffffffffffffffffffffffffffffffffff1916827bffffffffffffffffffffffffffffffffffffffffffffffffffffffff1916149050919050565b60008073ffffffffffffffffffffffffffffffffffffffff166002600084815260200190815260200160002060009054906101000a900473ffffffffffffffffffffffffffffffffffffffff1673ffffffffffffffffffffffffffffffffffffffff1614159050919050565b600033905090565b816004600083815260200190815260200160002060006101000a81548173ffffffffffffffffffffffffffffffffffffffff021916908373ffffffffffffffffffffffffffffffffffffffff160217905550808273ffffffffffffffffffffffffffffffffffffffff16610ed883610890565b73ffffffffffffffffffffffffffffffffffffffff167f8c5be1e5ebec7d5bd14f71427d1e84f3dd0314c0f7b2291e5b200ac8c7c3b92560405160405180910390a45050565b6000610f2982610df1565b610f68576040517f08c379a0000000000000000000000000000000000000000000000000000000008152600401610f5f90612923565b60405180910390fd5b6000610f7383610890565b90508073ffffffffffffffffffffffffffffffffffffffff168473ffffffffffffffffffffffffffffffffffffffff161480610fe257508373ffffffffffffffffffffffffffffffffffffffff16610fca84610506565b73ffffffffffffffffffffffffffffffffffffffff16145b80610ff35750610ff28185610cf3565b5b91505092915050565b8273ffffffffffffffffffffffffffffffffffffffff1661101c82610890565b73ffffffffffffffffffffffffffffffffffffffff1614611072576040517f08c379a0000000000000000000000000000000000000000000000000000000008152600401611069906129b5565b60405180910390fd5b600073ffffffffffffffffffffffffffffffffffffffff168273ffffffffffffffffffffffffffffffffffffffff16036110e1576040517f08c379a00000000000000000000000000000000000000000000000000000000081526004016110d890612a47565b60405180910390fd5b6110ec83838361157a565b6110f7600082610e65565b6001600360008573ffffffffffffffffffffffffffffffffffffffff1673ffffffffffffffffffffffffffffffffffffffff16815260200190815260200160002060008282546111479190612a67565b925050819055506001600360008473ffffffffffffffffffffffffffffffffffffffff1673ffffffffffffffffffffffffffffffffffffffff168152602001908152602001600020600082825461119e9190612a9b565b92505081905550816002600083815260200190815260200160002060006101000a81548173ffffffffffffffffffffffffffffffffffffffff021916908373ffffffffffffffffffffffffffffffffffffffff160217905550808273ffffffffffffffffffffffffffffffffffffffff168473ffffffffffffffffffffffffffffffffffffffff167fddf252ad1be2c89b69c2b068fc378daa952ba7f163c4a11628f55a4df523b3ef60405160405180910390a461125d83838361157f565b505050565b8173ffffffffffffffffffffffffffffffffffffffff168373ffffffffffffffffffffffffffffffffffffffff16036112d0576040517f08c379a00000000000000000000000000000000000000000000000000000000081526004016112c790612b3d565b60405180910390fd5b80600560008573ffffffffffffffffffffffffffffffffffffffff1673ffffffffffffffffffffffffffffffffffffffff16815260200190815260200160002060008473ffffffffffffffffffffffffffffffffffffffff1673ffffffffffffffffffffffffffffffffffffffff16815260200190815260200160002060006101000a81548160ff0219169083151502179055508173ffffffffffffffffffffffffffffffffffffffff168373ffffffffffffffffffffffffffffffffffffffff167f17307eab39ab6107e8899845ad3d59bd9653f200f220920489ca2b5937696c31836040516113c19190611c19565b60405180910390a3505050565b6113d9848484610ffc565b6113e584848484611584565b611424576040517f08c379a000000000000000000000000000000000000000000000000000000000815260040161141b90612bcf565b60405180910390fd5b50505050565b606060405180602001604052806000815250905090565b606061144c82610df1565b61148b576040517f08c379a000000000000000000000000000000000000000000000000000000000815260040161148290612c61565b60405180910390fd5b600061149561142a565b905060008151116114b557604051806020016040528060008152506114e0565b806114bf8461170b565b6040516020016114d0929190612816565b6040516020818303038152906040525b915050919050565b61150282826040518060200160405280600081525061186b565b5050565b61150f82610df1565b61154e576040517f08c379a000000000000000000000000000000000000000000000000000000000815260040161154590612cf3565b60405180910390fd5b80600660008481526020019081526020016000209080519060200190611575929190611ac2565b505050565b505050565b505050565b60006115a58473ffffffffffffffffffffffffffffffffffffffff166118c6565b156116fe578373ffffffffffffffffffffffffffffffffffffffff1663150b7a026115ce610e5d565b8786866040518563ffffffff1660e01b81526004016115f09493929190612d68565b6020604051808303816000875af192505050801561162c57506040513d601f19601f820116820180604052508101906116299190612dc9565b60015b6116ae573d806000811461165c576040519150601f19603f3d011682016040523d82523d6000602084013e611661565b606091505b5060008151036116a6576040517f08c379a000000000000000000000000000000000000000000000000000000000815260040161169d90612bcf565b60405180910390fd5b805181602001fd5b63150b7a0260e01b7bffffffffffffffffffffffffffffffffffffffffffffffffffffffff1916817bffffffffffffffffffffffffffffffffffffffffffffffffffffffff191614915050611703565b600190505b949350505050565b606060008203611752576040518060400160405280600181526020017f30000000000000000000000000000000000000000000000000000000000000008152509050611866565b600082905060005b6000821461178457808061176d90612869565b915050600a8261177d9190612e25565b915061175a565b60008167ffffffffffffffff8111156117a05761179f611f3a565b5b6040519080825280601f01601f1916602001820160405280156117d25781602001600182028036833780820191505090505b5090505b6000851461185f576001826117eb9190612a67565b9150600a856117fa9190612e56565b60306118069190612a9b565b60f81b81838151811061181c5761181b612e87565b5b60200101907effffffffffffffffffffffffffffffffffffffffffffffffffffffffffffff1916908160001a905350600a856118589190612e25565b94506117d6565b8093505050505b919050565b61187583836118e9565b6118826000848484611584565b6118c1576040517f08c379a00000000000000000000000000000000000000000000000000000000081526004016118b890612bcf565b60405180910390fd5b505050565b6000808273ffffffffffffffffffffffffffffffffffffffff163b119050919050565b600073ffffffffffffffffffffffffffffffffffffffff168273ffffffffffffffffffffffffffffffffffffffff1603611958576040517f08c379a000000000000000000000000000000000000000000000000000000000815260040161194f90612f02565b60405180910390fd5b61196181610df1565b156119a1576040517f08c379a000000000000000000000000000000000000000000000000000000000815260040161199890612f6e565b60405180910390fd5b6119ad6000838361157a565b6001600360008473ffffffffffffffffffffffffffffffffffffffff1673ffffffffffffffffffffffffffffffffffffffff16815260200190815260200160002060008282546119fd9190612a9b565b92505081905550816002600083815260200190815260200160002060006101000a81548173ffffffffffffffffffffffffffffffffffffffff021916908373ffffffffffffffffffffffffffffffffffffffff160217905550808273ffffffffffffffffffffffffffffffffffffffff16600073ffffffffffffffffffffffffffffffffffffffff167fddf252ad1be2c89b69c2b068fc378daa952ba7f163c4a11628f55a4df523b3ef60405160405180910390a4611abe6000838361157f565b5050565b828054611ace90612241565b90600052602060002090601f016020900481019282611af05760008555611b37565b82601f10611b0957805160ff1916838001178555611b37565b82800160010185558215611b37579182015b82811115611b36578251825591602001919060010190611b1b565b5b509050611b449190611b48565b5090565b5b80821115611b61576000816000905550600101611b49565b5090565b6000604051905090565b600080fd5b600080fd5b60007fffffffff0000000000000000000000000000000000000000000000000000000082169050919050565b611bae81611b79565b8114611bb957600080fd5b50565b600081359050611bcb81611ba5565b92915050565b600060208284031215611be757611be6611b6f565b5b6000611bf584828501611bbc565b91505092915050565b60008115159050919050565b611c1381611bfe565b82525050565b6000602082019050611c2e6000830184611c0a565b92915050565b600081519050919050565b600082825260208201905092915050565b60005b83811015611c6e578082015181840152602081019050611c53565b83811115611c7d576000848401525b50505050565b6000601f19601f8301169050919050565b6000611c9f82611c34565b611ca98185611c3f565b9350611cb9818560208601611c50565b611cc281611c83565b840191505092915050565b60006020820190508181036000830152611ce78184611c94565b905092915050565b6000819050919050565b611d0281611cef565b8114611d0d57600080fd5b50565b600081359050611d1f81611cf9565b92915050565b600060208284031215611d3b57611d3a611b6f565b5b6000611d4984828501611d10565b91505092915050565b600073ffffffffffffffffffffffffffffffffffffffff82169050919050565b6000611d7d82611d52565b9050919050565b611d8d81611d72565b82525050565b6000602082019050611da86000830184611d84565b92915050565b611db781611d72565b8114611dc257600080fd5b50565b600081359050611dd481611dae565b92915050565b60008060408385031215611df157611df0611b6f565b5b6000611dff85828601611dc5565b9250506020611e1085828601611d10565b9150509250929050565b600080600060608486031215611e3357611e32611b6f565b5b6000611e4186828701611dc5565b9350506020611e5286828701611dc5565b9250506040611e6386828701611d10565b9150509250925092565b600060208284031215611e8357611e82611b6f565b5b6000611e9184828501611dc5565b91505092915050565b611ea381611cef565b82525050565b6000602082019050611ebe6000830184611e9a565b92915050565b611ecd81611bfe565b8114611ed857600080fd5b50565b600081359050611eea81611ec4565b92915050565b60008060408385031215611f0757611f06611b6f565b5b6000611f1585828601611dc5565b9250506020611f2685828601611edb565b9150509250929050565b600080fd5b600080fd5b7f4e487b7100000000000000000000000000000000000000000000000000000000600052604160045260246000fd5b611f7282611c83565b810181811067ffffffffffffffff82111715611f9157611f90611f3a565b5b80604052505050565b6000611fa4611b65565b9050611fb08282611f69565b919050565b600067ffffffffffffffff821115611fd057611fcf611f3a565b5b611fd982611c83565b9050602081019050919050565b82818337600083830152505050565b600061200861200384611fb5565b611f9a565b90508281526020810184848401111561202457612023611f35565b5b61202f848285611fe6565b509392505050565b600082601f83011261204c5761204b611f30565b5b813561205c848260208601611ff5565b91505092915050565b6000806000806080858703121561207f5761207e611b6f565b5b600061208d87828801611dc5565b945050602061209e87828801611dc5565b93505060406120af87828801611d10565b925050606085013567ffffffffffffffff8111156120d0576120cf611b74565b5b6120dc87828801612037565b91505092959194509250565b600067ffffffffffffffff82111561210357612102611f3a565b5b61210c82611c83565b9050602081019050919050565b600061212c612127846120e8565b611f9a565b90508281526020810184848401111561214857612147611f35565b5b612153848285611fe6565b509392505050565b600082601f8301126121705761216f611f30565b5b8135612180848260208601612119565b91505092915050565b60006020828403121561219f5761219e611b6f565b5b600082013567ffffffffffffffff8111156121bd576121bc611b74565b5b6121c98482850161215b565b91505092915050565b600080604083850312156121e9576121e8611b6f565b5b60006121f785828601611dc5565b925050602061220885828601611dc5565b9150509250929050565b7f4e487b7100000000000000000000000000000000000000000000000000000000600052602260045260246000fd5b6000600282049050600182168061225957607f821691505b60208210810361226c5761226b612212565b5b50919050565b7f4552433732313a20617070726f76656420717565727920666f72206e6f6e657860008201527f697374656e7420746f6b656e0000000000000000000000000000000000000000602082015250565b60006122ce602c83611c3f565b91506122d982612272565b604082019050919050565b600060208201905081810360008301526122fd816122c1565b9050919050565b7f4552433732313a20617070726f76616c20746f2063757272656e74206f776e6560008201527f7200000000000000000000000000000000000000000000000000000000000000602082015250565b6000612360602183611c3f565b915061236b82612304565b604082019050919050565b6000602082019050818103600083015261238f81612353565b9050919050565b7f4552433732313a20617070726f76652063616c6c6572206973206e6f74206f7760008201527f6e6572206e6f7220617070726f76656420666f7220616c6c0000000000000000602082015250565b60006123f2603883611c3f565b91506123fd82612396565b604082019050919050565b60006020820190508181036000830152612421816123e5565b9050919050565b7f5468697320746f6b656e206973206e6f7420796f757273000000000000000000600082015250565b600061245e601783611c3f565b915061246982612428565b602082019050919050565b6000602082019050818103600083015261248d81612451565b9050919050565b7f506c656173652066616c6c206261636b207468697320746f6b656e206174206d60008201527f61726b6574706c61636500000000000000000000000000000000000000000000602082015250565b60006124f0602a83611c3f565b91506124fb82612494565b604082019050919050565b6000602082019050818103600083015261251f816124e3565b9050919050565b7f5468697320746f6b656e20697320616c7265616479207265616c697a65640000600082015250565b600061255c601e83611c3f565b915061256782612526565b602082019050919050565b6000602082019050818103600083015261258b8161254f565b9050919050565b7f4552433732313a207472616e736665722063616c6c6572206973206e6f74206f60008201527f776e6572206e6f7220617070726f766564000000000000000000000000000000602082015250565b60006125ee603183611c3f565b91506125f982612592565b604082019050919050565b6000602082019050818103600083015261261d816125e1565b9050919050565b7f4552433732313a206f776e657220717565727920666f72206e6f6e657869737460008201527f656e7420746f6b656e0000000000000000000000000000000000000000000000602082015250565b6000612680602983611c3f565b915061268b82612624565b604082019050919050565b600060208201905081810360008301526126af81612673565b9050919050565b7f4552433732313a2062616c616e636520717565727920666f7220746865207a6560008201527f726f206164647265737300000000000000000000000000000000000000000000602082015250565b6000612712602a83611c3f565b915061271d826126b6565b604082019050919050565b6000602082019050818103600083015261274181612705565b9050919050565b7f45524337323155524953746f726167653a2055524920717565727920666f722060008201527f6e6f6e6578697374656e7420746f6b656e000000000000000000000000000000602082015250565b60006127a4603183611c3f565b91506127af82612748565b604082019050919050565b600060208201905081810360008301526127d381612797565b9050919050565b600081905092915050565b60006127f082611c34565b6127fa81856127da565b935061280a818560208601611c50565b80840191505092915050565b600061282282856127e5565b915061282e82846127e5565b91508190509392505050565b7f4e487b7100000000000000000000000000000000000000000000000000000000600052601160045260246000fd5b600061287482611cef565b91507fffffffffffffffffffffffffffffffffffffffffffffffffffffffffffffffff82036128a6576128a561283a565b5b600182019050919050565b7f4552433732313a206f70657261746f7220717565727920666f72206e6f6e657860008201527f697374656e7420746f6b656e0000000000000000000000000000000000000000602082015250565b600061290d602c83611c3f565b9150612918826128b1565b604082019050919050565b6000602082019050818103600083015261293c81612900565b9050919050565b7f4552433732313a207472616e736665722066726f6d20696e636f72726563742060008201527f6f776e6572000000000000000000000000000000000000000000000000000000602082015250565b600061299f602583611c3f565b91506129aa82612943565b604082019050919050565b600060208201905081810360008301526129ce81612992565b9050919050565b7f4552433732313a207472616e7366657220746f20746865207a65726f2061646460008201527f7265737300000000000000000000000000000000000000000000000000000000602082015250565b6000612a31602483611c3f565b9150612a3c826129d5565b604082019050919050565b60006020820190508181036000830152612a6081612a24565b9050919050565b6000612a7282611cef565b9150612a7d83611cef565b925082821015612a9057612a8f61283a565b5b828203905092915050565b6000612aa682611cef565b9150612ab183611cef565b9250827fffffffffffffffffffffffffffffffffffffffffffffffffffffffffffffffff03821115612ae657612ae561283a565b5b828201905092915050565b7f4552433732313a20617070726f766520746f2063616c6c657200000000000000600082015250565b6000612b27601983611c3f565b9150612b3282612af1565b602082019050919050565b60006020820190508181036000830152612b5681612b1a565b9050919050565b7f4552433732313a207472616e7366657220746f206e6f6e20455243373231526560008201527f63656976657220696d706c656d656e7465720000000000000000000000000000602082015250565b6000612bb9603283611c3f565b9150612bc482612b5d565b604082019050919050565b60006020820190508181036000830152612be881612bac565b9050919050565b7f4552433732314d657461646174613a2055524920717565727920666f72206e6f60008201527f6e6578697374656e7420746f6b656e0000000000000000000000000000000000602082015250565b6000612c4b602f83611c3f565b9150612c5682612bef565b604082019050919050565b60006020820190508181036000830152612c7a81612c3e565b9050919050565b7f45524337323155524953746f726167653a2055524920736574206f66206e6f6e60008201527f6578697374656e7420746f6b656e000000000000000000000000000000000000602082015250565b6000612cdd602e83611c3f565b9150612ce882612c81565b604082019050919050565b60006020820190508181036000830152612d0c81612cd0565b9050919050565b600081519050919050565b600082825260208201905092915050565b6000612d3a82612d13565b612d448185612d1e565b9350612d54818560208601611c50565b612d5d81611c83565b840191505092915050565b6000608082019050612d7d6000830187611d84565b612d8a6020830186611d84565b612d976040830185611e9a565b8181036060830152612da98184612d2f565b905095945050505050565b600081519050612dc381611ba5565b92915050565b600060208284031215612ddf57612dde611b6f565b5b6000612ded84828501612db4565b91505092915050565b7f4e487b7100000000000000000000000000000000000000000000000000000000600052601260045260246000fd5b6000612e3082611cef565b9150612e3b83611cef565b925082612e4b57612e4a612df6565b5b828204905092915050565b6000612e6182611cef565b9150612e6c83611cef565b925082612e7c57612e7b612df6565b5b828206905092915050565b7f4e487b7100000000000000000000000000000000000000000000000000000000600052603260045260246000fd5b7f4552433732313a206d696e7420746f20746865207a65726f2061646472657373600082015250565b6000612eec602083611c3f565b9150612ef782612eb6565b602082019050919050565b60006020820190508181036000830152612f1b81612edf565b9050919050565b7f4552433732313a20746f6b656e20616c7265616479206d696e74656400000000600082015250565b6000612f58601c83611c3f565b9150612f6382612f22565b602082019050919050565b60006020820190508181036000830152612f8781612f4b565b905091905056fea2646970667358221220cfd8fe1146ff143262393d7edc680d9d8bba10dee22341c6ffeb8f35bfefc11564736f6c634300080d0033",
  "immutableReferences": {},
  "source": "// SPDX-License-Identifier: MIT\r\npragma solidity ^0.8.4;\r\n\r\nimport \"@openzeppelin/contracts/token/ERC721/extensions/ERC721URIStorage.sol\";\r\nimport \"./Marketplace.sol\";\r\n\r\n\r\n// nft  =  \r\n//   (NFT.sol) ->   (Marketplace.sol)  ->   ->    -> (Marketplace.sol)    \r\n\r\n// nft  erc721     erc721uristorage \r\n// erc721uristorage erc721   erc721     .\r\n// uristorage nft        .\r\ncontract NFT is ERC721URIStorage {\r\n  // - \r\n  // nft       ( ,   ...)\r\n  //      ,         .\r\n  uint public tokenCount;\r\n\r\n  struct TokenData {\r\n\r\n    // address ownerAddr;\r\n\r\n    bool realization;\r\n  }\r\n\r\n  mapping(uint256 => TokenData) internal _tokenData;\r\n  //    SafeMath \r\n\r\n  // - ()\r\n  //         = \r\n  // ()   {}  \r\n  //  erc721   \r\n  //  ,   \r\n  constructor() ERC721(\"DApp NFT\", \"DAPP\") {}\r\n\r\n  // - \r\n  // _tokenURI nft   = ipfs      \r\n  //  :     memory  \r\n  //  :     external\r\n  //  :    ID \r\n  function mint(string memory _tokenURI) external returns (uint) {\r\n    tokenCount ++;\r\n    // erc721   ( ,  id)\r\n    _safeMint(msg.sender, tokenCount);\r\n    // erc721uristorage         \r\n    _tokenData[tokenCount].realization = false;\r\n    _setTokenURI(tokenCount, _tokenURI);\r\n\r\n    return(tokenCount);\r\n  }\r\n\r\n\r\n  //    =>    => ,  \r\n  function isRealization(uint _tokenId) public view returns (bool) {\r\n    return _tokenData[_tokenId].realization;\r\n  }\r\n\r\n\r\n  //  \r\n  // *  (  marketplace  ex) const marketAddr = await marketpalce.address, tokenId)\r\n  // *   \r\n  //    1.        ==   \r\n  //    2.    ==     \r\n  //    3.    isRealization  ==   \r\n  function Realization(address marketplaceAddr, uint _tokenId) public {\r\n    if (ownerOf(_tokenId) != msg.sender) revert(\"This token is not yours\");\r\n    if (marketplaceAddr == ownerOf(_tokenId)) revert(\"Please fall back this token at marketplace\");\r\n    if (isRealization(_tokenId) == true ) revert(\"This token is already realized\");\r\n    unchecked{\r\n      _tokenData[_tokenId].realization = true;\r\n    }\r\n  }\r\n}",
  "sourcePath": "C:\\Users\\SSAFY\\Desktop\\S06P22E206\\frontend\\src\\contracts\\NFT.sol",
  "compiler": {
    "name": "solc",
    "version": "0.8.13+commit.abaa5c0e.Emscripten.clang"
  },
  "schemaVersion": "3.4.6",
  "updatedAt": "2022-04-06T02:49:35.308Z",
  "networkType": "ethereum",
  "devdoc": {
    "kind": "dev",
    "methods": {
      "approve(address,uint256)": {
        "details": "See {IERC721-approve}."
      },
      "balanceOf(address)": {
        "details": "See {IERC721-balanceOf}."
      },
      "getApproved(uint256)": {
        "details": "See {IERC721-getApproved}."
      },
      "isApprovedForAll(address,address)": {
        "details": "See {IERC721-isApprovedForAll}."
      },
      "name()": {
        "details": "See {IERC721Metadata-name}."
      },
      "ownerOf(uint256)": {
        "details": "See {IERC721-ownerOf}."
      },
      "safeTransferFrom(address,address,uint256)": {
        "details": "See {IERC721-safeTransferFrom}."
      },
      "safeTransferFrom(address,address,uint256,bytes)": {
        "details": "See {IERC721-safeTransferFrom}."
      },
      "setApprovalForAll(address,bool)": {
        "details": "See {IERC721-setApprovalForAll}."
      },
      "supportsInterface(bytes4)": {
        "details": "See {IERC165-supportsInterface}."
      },
      "symbol()": {
        "details": "See {IERC721Metadata-symbol}."
      },
      "tokenURI(uint256)": {
        "details": "See {IERC721Metadata-tokenURI}."
      },
      "transferFrom(address,address,uint256)": {
        "details": "See {IERC721-transferFrom}."
      }
    },
    "version": 1
  },
  "userdoc": {
    "kind": "user",
    "methods": {},
    "version": 1
  }
}